{
  "contracts/XTimesERC20.sol": {
    "XTimesERC20": {
      "abi": [
        {
          "inputs": [],
          "stateMutability": "nonpayable",
          "type": "constructor"
        },
        {
          "inputs": [],
          "name": "AccessControlBadConfirmation",
          "type": "error"
        },
        {
          "inputs": [
            {
              "internalType": "address",
              "name": "account",
              "type": "address"
            },
            {
              "internalType": "bytes32",
              "name": "neededRole",
              "type": "bytes32"
            }
          ],
          "name": "AccessControlUnauthorizedAccount",
          "type": "error"
        },
        {
          "inputs": [
            {
              "internalType": "uint256",
              "name": "increasedSupply",
              "type": "uint256"
            },
            {
              "internalType": "uint256",
              "name": "cap",
              "type": "uint256"
            }
          ],
          "name": "ERC20ExceededCap",
          "type": "error"
        },
        {
          "inputs": [
            {
              "internalType": "address",
              "name": "spender",
              "type": "address"
            },
            {
              "internalType": "uint256",
              "name": "allowance",
              "type": "uint256"
            },
            {
              "internalType": "uint256",
              "name": "needed",
              "type": "uint256"
            }
          ],
          "name": "ERC20InsufficientAllowance",
          "type": "error"
        },
        {
          "inputs": [
            {
              "internalType": "address",
              "name": "sender",
              "type": "address"
            },
            {
              "internalType": "uint256",
              "name": "balance",
              "type": "uint256"
            },
            {
              "internalType": "uint256",
              "name": "needed",
              "type": "uint256"
            }
          ],
          "name": "ERC20InsufficientBalance",
          "type": "error"
        },
        {
          "inputs": [
            {
              "internalType": "address",
              "name": "approver",
              "type": "address"
            }
          ],
          "name": "ERC20InvalidApprover",
          "type": "error"
        },
        {
          "inputs": [
            {
              "internalType": "uint256",
              "name": "cap",
              "type": "uint256"
            }
          ],
          "name": "ERC20InvalidCap",
          "type": "error"
        },
        {
          "inputs": [
            {
              "internalType": "address",
              "name": "receiver",
              "type": "address"
            }
          ],
          "name": "ERC20InvalidReceiver",
          "type": "error"
        },
        {
          "inputs": [
            {
              "internalType": "address",
              "name": "sender",
              "type": "address"
            }
          ],
          "name": "ERC20InvalidSender",
          "type": "error"
        },
        {
          "inputs": [
            {
              "internalType": "address",
              "name": "spender",
              "type": "address"
            }
          ],
          "name": "ERC20InvalidSpender",
          "type": "error"
        },
        {
          "inputs": [
            {
              "internalType": "address",
              "name": "owner",
              "type": "address"
            }
          ],
          "name": "OwnableInvalidOwner",
          "type": "error"
        },
        {
          "inputs": [
            {
              "internalType": "address",
              "name": "account",
              "type": "address"
            }
          ],
          "name": "OwnableUnauthorizedAccount",
          "type": "error"
        },
        {
          "inputs": [
            {
              "internalType": "address",
              "name": "treasure",
              "type": "address"
            },
            {
              "internalType": "address",
              "name": "treasureCandidate",
              "type": "address"
            }
          ],
          "name": "TreasureAlreadyDefined",
          "type": "error"
        },
        {
          "inputs": [
            {
              "internalType": "address",
              "name": "treasure",
              "type": "address"
            }
          ],
          "name": "TreasureInvalidAddress",
          "type": "error"
        },
        {
          "inputs": [
            {
              "internalType": "address",
              "name": "secretary",
              "type": "address"
            }
          ],
          "name": "TreasuryInvalidSecretary",
          "type": "error"
        },
        {
          "inputs": [
            {
              "internalType": "address",
              "name": "treasurer",
              "type": "address"
            }
          ],
          "name": "TreasuryInvalidTresurer",
          "type": "error"
        },
        {
          "inputs": [
            {
              "internalType": "address",
              "name": "account",
              "type": "address"
            },
            {
              "internalType": "bytes32",
              "name": "role",
              "type": "bytes32"
            },
            {
              "internalType": "uint256",
              "name": "amount",
              "type": "uint256"
            },
            {
              "internalType": "enum TreasuryOwnable.TreasureOperationType",
              "name": "oprType",
              "type": "uint8"
            },
            {
              "internalType": "uint256",
              "name": "maxAmount",
              "type": "uint256"
            }
          ],
          "name": "TreasuryOperationExceedsLimitPerTransaction",
          "type": "error"
        },
        {
          "inputs": [
            {
              "internalType": "address",
              "name": "account",
              "type": "address"
            },
            {
              "internalType": "uint256",
              "name": "amount",
              "type": "uint256"
            }
          ],
          "name": "TreasuryOperationInvalidAmount",
          "type": "error"
        },
        {
          "inputs": [
            {
              "internalType": "address",
              "name": "sender",
              "type": "address"
            }
          ],
          "name": "TreasuryUnauthorizedSecretaryAppointment",
          "type": "error"
        },
        {
          "inputs": [
            {
              "internalType": "address",
              "name": "account",
              "type": "address"
            },
            {
              "internalType": "enum TreasuryOwnable.TreasureOperationType",
              "name": "oprType",
              "type": "uint8"
            },
            {
              "internalType": "bytes32",
              "name": "minimumRequiredRole",
              "type": "bytes32"
            },
            {
              "internalType": "uint256",
              "name": "amount",
              "type": "uint256"
            }
          ],
          "name": "TreasuryUnauthorizedTreasureOperation",
          "type": "error"
        },
        {
          "inputs": [],
          "name": "UndefinedTreasure",
          "type": "error"
        },
        {
          "anonymous": false,
          "inputs": [
            {
              "indexed": true,
              "internalType": "address",
              "name": "owner",
              "type": "address"
            },
            {
              "indexed": true,
              "internalType": "address",
              "name": "spender",
              "type": "address"
            },
            {
              "indexed": false,
              "internalType": "uint256",
              "name": "value",
              "type": "uint256"
            }
          ],
          "name": "Approval",
          "type": "event"
        },
        {
          "anonymous": false,
          "inputs": [
            {
              "indexed": true,
              "internalType": "address",
              "name": "previousOwner",
              "type": "address"
            },
            {
              "indexed": true,
              "internalType": "address",
              "name": "newOwner",
              "type": "address"
            }
          ],
          "name": "OwnershipTransferred",
          "type": "event"
        },
        {
          "anonymous": false,
          "inputs": [
            {
              "indexed": true,
              "internalType": "bytes32",
              "name": "role",
              "type": "bytes32"
            },
            {
              "indexed": true,
              "internalType": "bytes32",
              "name": "previousAdminRole",
              "type": "bytes32"
            },
            {
              "indexed": true,
              "internalType": "bytes32",
              "name": "newAdminRole",
              "type": "bytes32"
            }
          ],
          "name": "RoleAdminChanged",
          "type": "event"
        },
        {
          "anonymous": false,
          "inputs": [
            {
              "indexed": true,
              "internalType": "bytes32",
              "name": "role",
              "type": "bytes32"
            },
            {
              "indexed": true,
              "internalType": "address",
              "name": "account",
              "type": "address"
            },
            {
              "indexed": true,
              "internalType": "address",
              "name": "sender",
              "type": "address"
            }
          ],
          "name": "RoleGranted",
          "type": "event"
        },
        {
          "anonymous": false,
          "inputs": [
            {
              "indexed": true,
              "internalType": "bytes32",
              "name": "role",
              "type": "bytes32"
            },
            {
              "indexed": true,
              "internalType": "address",
              "name": "account",
              "type": "address"
            },
            {
              "indexed": true,
              "internalType": "address",
              "name": "sender",
              "type": "address"
            }
          ],
          "name": "RoleRevoked",
          "type": "event"
        },
        {
          "anonymous": false,
          "inputs": [
            {
              "indexed": false,
              "internalType": "address",
              "name": "secretary",
              "type": "address"
            }
          ],
          "name": "SecretaryAppointed",
          "type": "event"
        },
        {
          "anonymous": false,
          "inputs": [
            {
              "indexed": false,
              "internalType": "address",
              "name": "secretary",
              "type": "address"
            }
          ],
          "name": "SecretaryDismissed",
          "type": "event"
        },
        {
          "anonymous": false,
          "inputs": [
            {
              "indexed": true,
              "internalType": "address",
              "name": "from",
              "type": "address"
            },
            {
              "indexed": true,
              "internalType": "address",
              "name": "to",
              "type": "address"
            },
            {
              "indexed": false,
              "internalType": "uint256",
              "name": "value",
              "type": "uint256"
            }
          ],
          "name": "Transfer",
          "type": "event"
        },
        {
          "anonymous": false,
          "inputs": [
            {
              "indexed": false,
              "internalType": "address",
              "name": "treasurer",
              "type": "address"
            }
          ],
          "name": "TreasurerAppointed",
          "type": "event"
        },
        {
          "anonymous": false,
          "inputs": [
            {
              "indexed": false,
              "internalType": "address",
              "name": "treasurer",
              "type": "address"
            }
          ],
          "name": "TreasurerDismissed",
          "type": "event"
        },
        {
          "inputs": [],
          "name": "DEFAULT_ADMIN_ROLE",
          "outputs": [
            {
              "internalType": "bytes32",
              "name": "",
              "type": "bytes32"
            }
          ],
          "stateMutability": "view",
          "type": "function"
        },
        {
          "inputs": [],
          "name": "INITIAL_TREASURE_SUPPLY",
          "outputs": [
            {
              "internalType": "uint32",
              "name": "",
              "type": "uint32"
            }
          ],
          "stateMutability": "view",
          "type": "function"
        },
        {
          "inputs": [],
          "name": "MAX_TOKEN_SUPPLY",
          "outputs": [
            {
              "internalType": "uint32",
              "name": "",
              "type": "uint32"
            }
          ],
          "stateMutability": "view",
          "type": "function"
        },
        {
          "inputs": [],
          "name": "TREASURY_SECRETARY",
          "outputs": [
            {
              "internalType": "bytes32",
              "name": "",
              "type": "bytes32"
            }
          ],
          "stateMutability": "view",
          "type": "function"
        },
        {
          "inputs": [],
          "name": "TREASURY_SECRETARY_MANAGER",
          "outputs": [
            {
              "internalType": "bytes32",
              "name": "",
              "type": "bytes32"
            }
          ],
          "stateMutability": "view",
          "type": "function"
        },
        {
          "inputs": [],
          "name": "TREASURY_TREASURER",
          "outputs": [
            {
              "internalType": "bytes32",
              "name": "",
              "type": "bytes32"
            }
          ],
          "stateMutability": "view",
          "type": "function"
        },
        {
          "inputs": [
            {
              "internalType": "address",
              "name": "owner",
              "type": "address"
            },
            {
              "internalType": "address",
              "name": "spender",
              "type": "address"
            }
          ],
          "name": "allowance",
          "outputs": [
            {
              "internalType": "uint256",
              "name": "",
              "type": "uint256"
            }
          ],
          "stateMutability": "view",
          "type": "function"
        },
        {
          "inputs": [
            {
              "internalType": "address",
              "name": "secretary",
              "type": "address"
            }
          ],
          "name": "appointSecretary",
          "outputs": [],
          "stateMutability": "nonpayable",
          "type": "function"
        },
        {
          "inputs": [
            {
              "internalType": "address",
              "name": "treasurer",
              "type": "address"
            }
          ],
          "name": "appointTreasurer",
          "outputs": [],
          "stateMutability": "nonpayable",
          "type": "function"
        },
        {
          "inputs": [
            {
              "internalType": "address",
              "name": "spender",
              "type": "address"
            },
            {
              "internalType": "uint256",
              "name": "value",
              "type": "uint256"
            }
          ],
          "name": "approve",
          "outputs": [
            {
              "internalType": "bool",
              "name": "",
              "type": "bool"
            }
          ],
          "stateMutability": "nonpayable",
          "type": "function"
        },
        {
          "inputs": [
            {
              "internalType": "address",
              "name": "account",
              "type": "address"
            }
          ],
          "name": "balanceOf",
          "outputs": [
            {
              "internalType": "uint256",
              "name": "",
              "type": "uint256"
            }
          ],
          "stateMutability": "view",
          "type": "function"
        },
        {
          "inputs": [
            {
              "internalType": "uint256",
              "name": "value",
              "type": "uint256"
            }
          ],
          "name": "burnFromTreasure",
          "outputs": [],
          "stateMutability": "nonpayable",
          "type": "function"
        },
        {
          "inputs": [],
          "name": "cap",
          "outputs": [
            {
              "internalType": "uint256",
              "name": "",
              "type": "uint256"
            }
          ],
          "stateMutability": "view",
          "type": "function"
        },
        {
          "inputs": [],
          "name": "decimals",
          "outputs": [
            {
              "internalType": "uint8",
              "name": "",
              "type": "uint8"
            }
          ],
          "stateMutability": "view",
          "type": "function"
        },
        {
          "inputs": [
            {
              "internalType": "address",
              "name": "secretary",
              "type": "address"
            }
          ],
          "name": "dismissSecretary",
          "outputs": [],
          "stateMutability": "nonpayable",
          "type": "function"
        },
        {
          "inputs": [
            {
              "internalType": "address",
              "name": "treasurer",
              "type": "address"
            }
          ],
          "name": "dismissTreasurer",
          "outputs": [],
          "stateMutability": "nonpayable",
          "type": "function"
        },
        {
          "inputs": [
            {
              "internalType": "address",
              "name": "treasureAddress",
              "type": "address"
            }
          ],
          "name": "establishTreasury",
          "outputs": [],
          "stateMutability": "nonpayable",
          "type": "function"
        },
        {
          "inputs": [
            {
              "internalType": "bytes32",
              "name": "role",
              "type": "bytes32"
            }
          ],
          "name": "getRoleAdmin",
          "outputs": [
            {
              "internalType": "bytes32",
              "name": "",
              "type": "bytes32"
            }
          ],
          "stateMutability": "view",
          "type": "function"
        },
        {
          "inputs": [
            {
              "internalType": "bytes32",
              "name": "role",
              "type": "bytes32"
            },
            {
              "internalType": "address",
              "name": "account",
              "type": "address"
            }
          ],
          "name": "grantRole",
          "outputs": [],
          "stateMutability": "nonpayable",
          "type": "function"
        },
        {
          "inputs": [
            {
              "internalType": "bytes32",
              "name": "role",
              "type": "bytes32"
            },
            {
              "internalType": "address",
              "name": "account",
              "type": "address"
            }
          ],
          "name": "hasRole",
          "outputs": [
            {
              "internalType": "bool",
              "name": "",
              "type": "bool"
            }
          ],
          "stateMutability": "view",
          "type": "function"
        },
        {
          "inputs": [
            {
              "internalType": "uint256",
              "name": "value",
              "type": "uint256"
            }
          ],
          "name": "issueTokensToTreasure",
          "outputs": [],
          "stateMutability": "nonpayable",
          "type": "function"
        },
        {
          "inputs": [],
          "name": "maxSupply",
          "outputs": [
            {
              "internalType": "uint256",
              "name": "",
              "type": "uint256"
            }
          ],
          "stateMutability": "view",
          "type": "function"
        },
        {
          "inputs": [],
          "name": "name",
          "outputs": [
            {
              "internalType": "string",
              "name": "",
              "type": "string"
            }
          ],
          "stateMutability": "view",
          "type": "function"
        },
        {
          "inputs": [],
          "name": "owner",
          "outputs": [
            {
              "internalType": "address",
              "name": "",
              "type": "address"
            }
          ],
          "stateMutability": "view",
          "type": "function"
        },
        {
          "inputs": [],
          "name": "renounceOwnership",
          "outputs": [],
          "stateMutability": "nonpayable",
          "type": "function"
        },
        {
          "inputs": [
            {
              "internalType": "bytes32",
              "name": "role",
              "type": "bytes32"
            },
            {
              "internalType": "address",
              "name": "callerConfirmation",
              "type": "address"
            }
          ],
          "name": "renounceRole",
          "outputs": [],
          "stateMutability": "nonpayable",
          "type": "function"
        },
        {
          "inputs": [
            {
              "internalType": "bytes32",
              "name": "role",
              "type": "bytes32"
            },
            {
              "internalType": "address",
              "name": "account",
              "type": "address"
            }
          ],
          "name": "revokeRole",
          "outputs": [],
          "stateMutability": "nonpayable",
          "type": "function"
        },
        {
          "inputs": [
            {
              "internalType": "bytes4",
              "name": "interfaceId",
              "type": "bytes4"
            }
          ],
          "name": "supportsInterface",
          "outputs": [
            {
              "internalType": "bool",
              "name": "",
              "type": "bool"
            }
          ],
          "stateMutability": "view",
          "type": "function"
        },
        {
          "inputs": [],
          "name": "symbol",
          "outputs": [
            {
              "internalType": "string",
              "name": "",
              "type": "string"
            }
          ],
          "stateMutability": "view",
          "type": "function"
        },
        {
          "inputs": [],
          "name": "totalSupply",
          "outputs": [
            {
              "internalType": "uint256",
              "name": "",
              "type": "uint256"
            }
          ],
          "stateMutability": "view",
          "type": "function"
        },
        {
          "inputs": [
            {
              "internalType": "address",
              "name": "to",
              "type": "address"
            },
            {
              "internalType": "uint256",
              "name": "value",
              "type": "uint256"
            }
          ],
          "name": "transfer",
          "outputs": [
            {
              "internalType": "bool",
              "name": "",
              "type": "bool"
            }
          ],
          "stateMutability": "nonpayable",
          "type": "function"
        },
        {
          "inputs": [
            {
              "internalType": "address",
              "name": "from",
              "type": "address"
            },
            {
              "internalType": "address",
              "name": "to",
              "type": "address"
            },
            {
              "internalType": "uint256",
              "name": "value",
              "type": "uint256"
            }
          ],
          "name": "transferFrom",
          "outputs": [
            {
              "internalType": "bool",
              "name": "",
              "type": "bool"
            }
          ],
          "stateMutability": "nonpayable",
          "type": "function"
        },
        {
          "inputs": [
            {
              "internalType": "address",
              "name": "to",
              "type": "address"
            },
            {
              "internalType": "uint256",
              "name": "value",
              "type": "uint256"
            }
          ],
          "name": "transferFromTreasure",
          "outputs": [],
          "stateMutability": "nonpayable",
          "type": "function"
        },
        {
          "inputs": [
            {
              "internalType": "address",
              "name": "newOwner",
              "type": "address"
            }
          ],
          "name": "transferOwnership",
          "outputs": [],
          "stateMutability": "nonpayable",
          "type": "function"
        },
        {
          "inputs": [],
          "name": "treasure",
          "outputs": [
            {
              "internalType": "address",
              "name": "",
              "type": "address"
            }
          ],
          "stateMutability": "view",
          "type": "function"
        }
      ],
      "evm": {
        "bytecode": {
          "linkReferences": {},
          "object": "60a060405234801561001057600080fd5b5061001f61026160201b60201c565b61002d61026960201b60201c565b600a610039919061069c565b633b9aca0063ffffffff1661004e91906106e7565b6040518060400160405280600781526020017f582d54696d6573000000000000000000000000000000000000000000000000008152506040518060400160405280600681526020017f5854494d4553000000000000000000000000000000000000000000000000000081525081600390816100c9919061096f565b5080600490816100d9919061096f565b505050600081036101225760006040517f392e1e270000000000000000000000000000000000000000000000000000000081526004016101199190610a7c565b60405180910390fd5b806080818152505050600073ffffffffffffffffffffffffffffffffffffffff168173ffffffffffffffffffffffffffffffffffffffff160361019d5760006040517f1e4fbdf70000000000000000000000000000000000000000000000000000000081526004016101949190610ad8565b60405180910390fd5b6101ac8161027260201b60201c565b506101cd6000801b6101c261026160201b60201c565b61033860201b60201c565b5061020b7f05b31cc03ed6ebe148d19cf37ee86dc3428b3582d79a90304535505acda3f79361020061026160201b60201c565b61033860201b60201c565b5061025c7fafdaf88ccaceedf25860d75cffacf49572d01e9c3a1769017788d59dd8d968ff7f05b31cc03ed6ebe148d19cf37ee86dc3428b3582d79a90304535505acda3f79361043660201b60201c565b610af3565b600033905090565b60006012905090565b6000600560009054906101000a900473ffffffffffffffffffffffffffffffffffffffff16905081600560006101000a81548173ffffffffffffffffffffffffffffffffffffffff021916908373ffffffffffffffffffffffffffffffffffffffff1602179055508173ffffffffffffffffffffffffffffffffffffffff168173ffffffffffffffffffffffffffffffffffffffff167f8be0079c531659141344cd1fd0a4f28419497f9722a3daafe3b4186f6b6457e060405160405180910390a35050565b600061034a838361049860201b60201c565b61042b5760016006600085815260200190815260200160002060000160008473ffffffffffffffffffffffffffffffffffffffff1673ffffffffffffffffffffffffffffffffffffffff16815260200190815260200160002060006101000a81548160ff0219169083151502179055506103c861026160201b60201c565b73ffffffffffffffffffffffffffffffffffffffff168273ffffffffffffffffffffffffffffffffffffffff16847f2f8788117e7eff1d82e926ec794901d17c78024a50270940304540a733656f0d60405160405180910390a460019050610430565b600090505b92915050565b60006104478361050360201b60201c565b90508160066000858152602001908152602001600020600101819055508181847fbd79b86ffe0ab8e8776151514217cd7cacd52c909f66475c3af44e129f0b00ff60405160405180910390a4505050565b60006006600084815260200190815260200160002060000160008373ffffffffffffffffffffffffffffffffffffffff1673ffffffffffffffffffffffffffffffffffffffff16815260200190815260200160002060009054906101000a900460ff16905092915050565b600060066000838152602001908152602001600020600101549050919050565b7f4e487b7100000000000000000000000000000000000000000000000000000000600052601160045260246000fd5b60008160011c9050919050565b6000808291508390505b60018511156105a95780860481111561058557610584610523565b5b60018516156105945780820291505b80810290506105a285610552565b9450610569565b94509492505050565b6000826105c2576001905061067e565b816105d0576000905061067e565b81600181146105e657600281146105f05761061f565b600191505061067e565b60ff84111561060257610601610523565b5b8360020a91508482111561061957610618610523565b5b5061067e565b5060208310610133831016604e8410600b84101617156106545782820a90508381111561064f5761064e610523565b5b61067e565b610661848484600161055f565b9250905081840481111561067857610677610523565b5b81810290505b9392505050565b6000819050919050565b600060ff82169050919050565b60006106a782610685565b91506106b28361068f565b92506106df7fffffffffffffffffffffffffffffffffffffffffffffffffffffffffffffffff84846105b2565b905092915050565b60006106f282610685565b91506106fd83610685565b925082820261070b81610685565b9150828204841483151761072257610721610523565b5b5092915050565b600081519050919050565b7f4e487b7100000000000000000000000000000000000000000000000000000000600052604160045260246000fd5b7f4e487b7100000000000000000000000000000000000000000000000000000000600052602260045260246000fd5b600060028204905060018216806107aa57607f821691505b6020821081036107bd576107bc610763565b5b50919050565b60008190508160005260206000209050919050565b60006020601f8301049050919050565b600082821b905092915050565b6000600883026108257fffffffffffffffffffffffffffffffffffffffffffffffffffffffffffffffff826107e8565b61082f86836107e8565b95508019841693508086168417925050509392505050565b6000819050919050565b600061086c61086761086284610685565b610847565b610685565b9050919050565b6000819050919050565b61088683610851565b61089a61089282610873565b8484546107f5565b825550505050565b600090565b6108af6108a2565b6108ba81848461087d565b505050565b5b818110156108de576108d36000826108a7565b6001810190506108c0565b5050565b601f821115610923576108f4816107c3565b6108fd846107d8565b8101602085101561090c578190505b610920610918856107d8565b8301826108bf565b50505b505050565b600082821c905092915050565b600061094660001984600802610928565b1980831691505092915050565b600061095f8383610935565b9150826002028217905092915050565b61097882610729565b67ffffffffffffffff81111561099157610990610734565b5b61099b8254610792565b6109a68282856108e2565b600060209050601f8311600181146109d957600084156109c7578287015190505b6109d18582610953565b865550610a39565b601f1984166109e7866107c3565b60005b82811015610a0f578489015182556001820191506020850194506020810190506109ea565b86831015610a2c5784890151610a28601f891682610935565b8355505b6001600288020188555050505b505050505050565b6000819050919050565b6000610a66610a61610a5c84610a41565b610847565b610685565b9050919050565b610a7681610a4b565b82525050565b6000602082019050610a916000830184610a6d565b92915050565b600073ffffffffffffffffffffffffffffffffffffffff82169050919050565b6000610ac282610a97565b9050919050565b610ad281610ab7565b82525050565b6000602082019050610aed6000830184610ac9565b92915050565b608051612d7e610b0e60003960006108df0152612d7e6000f3fe608060405234801561001057600080fd5b50600436106102115760003560e01c8063715018a611610125578063bd0ae394116100ad578063e160cd081161007c578063e160cd0814610602578063e1ccadcf14610620578063e489d5101461063c578063e520fc7e1461065a578063f2fde38b1461067857610211565b8063bd0ae3941461057c578063d547741f14610598578063d5abeb01146105b4578063dd62ed3e146105d257610211565b806395d89b41116100f457806395d89b41146104d857806399d23277146104f6578063a217fddf14610512578063a5465f4014610530578063a9059cbb1461054c57610211565b8063715018a61461046257806380bd59961461046c5780638da5cb5b1461048a57806391d14854146104a857610211565b80632f2ff15d116101a857806336568abe1161017757806336568abe146103c257806337d5534e146103de57806339ae5108146103fa578063469a8dbd1461041657806370a082311461043257610211565b80632f2ff15d1461034c578063313ce5671461036857806332544a6214610386578063355274ea146103a457610211565b806318160ddd116101e457806318160ddd146102b057806323b872dd146102ce578063248a9ca3146102fe5780632f1f68791461032e57610211565b806301ffc9a7146102165780630254e8b01461024657806306fdde0314610262578063095ea7b314610280575b600080fd5b610230600480360381019061022b91906123e1565b610694565b60405161023d9190612429565b60405180910390f35b610260600480360381019061025b91906124a2565b61070e565b005b61026a61075a565b604051610277919061255f565b60405180910390f35b61029a600480360381019061029591906125b7565b6107ec565b6040516102a79190612429565b60405180910390f35b6102b861080f565b6040516102c59190612606565b60405180910390f35b6102e860048036038101906102e39190612621565b610819565b6040516102f59190612429565b60405180910390f35b610318600480360381019061031391906126aa565b610848565b60405161032591906126e6565b60405180910390f35b610336610868565b60405161034391906126e6565b60405180910390f35b61036660048036038101906103619190612701565b61088c565b005b6103706108ae565b60405161037d919061275d565b60405180910390f35b61038e6108b7565b60405161039b91906126e6565b60405180910390f35b6103ac6108db565b6040516103b99190612606565b60405180910390f35b6103dc60048036038101906103d79190612701565b610903565b005b6103f860048036038101906103f391906125b7565b61097e565b005b610414600480360381019061040f91906124a2565b610a05565b005b610430600480360381019061042b91906124a2565b610b0c565b005b61044c600480360381019061044791906124a2565b610c13565b6040516104599190612606565b60405180910390f35b61046a610c5b565b005b610474610c6f565b6040516104819190612797565b60405180910390f35b610492610c76565b60405161049f91906127c1565b60405180910390f35b6104c260048036038101906104bd9190612701565b610ca0565b6040516104cf9190612429565b60405180910390f35b6104e0610d0b565b6040516104ed919061255f565b60405180910390f35b610510600480360381019061050b91906127dc565b610d9d565b005b61051a610e22565b60405161052791906126e6565b60405180910390f35b61054a600480360381019061054591906124a2565b610e29565b005b610566600480360381019061056191906125b7565b610f6f565b6040516105739190612429565b60405180910390f35b610596600480360381019061059191906127dc565b610f92565b005b6105b260048036038101906105ad9190612701565b611017565b005b6105bc611039565b6040516105c99190612606565b60405180910390f35b6105ec60048036038101906105e79190612809565b611048565b6040516105f99190612606565b60405180910390f35b61060a6110cf565b60405161061791906126e6565b60405180910390f35b61063a600480360381019061063591906124a2565b6110f3565b005b610644611239565b6040516106519190612797565b60405180910390f35b610662611241565b60405161066f91906127c1565b60405180910390f35b610692600480360381019061068d91906124a2565b611273565b005b60007f7965db0b000000000000000000000000000000000000000000000000000000007bffffffffffffffffffffffffffffffffffffffffffffffffffffffff1916827bffffffffffffffffffffffffffffffffffffffffffffffffffffffff191614806107075750610706826112f9565b5b9050919050565b610716611363565b61071f816113ea565b61075761072a611241565b6107326108ae565b600a61073e91906129ab565b62030d4063ffffffff1661075291906129f6565b61155e565b50565b60606003805461076990612a67565b80601f016020809104026020016040519081016040528092919081815260200182805461079590612a67565b80156107e25780601f106107b7576101008083540402835291602001916107e2565b820191906000526020600020905b8154815290600101906020018083116107c557829003601f168201915b5050505050905090565b6000806107f76115e0565b90506108048185856115e8565b600191505092915050565b6000600254905090565b6000806108246115e0565b90506108318582856115fa565b61083c85858561168e565b60019150509392505050565b600060066000838152602001908152602001600020600101549050919050565b7fcc5864b50c006efffec16fbcc758b1c2b9725f841f80df83ea738c15e5b23bbc81565b61089582610848565b61089e81611782565b6108a88383611796565b50505050565b60006012905090565b7f05b31cc03ed6ebe148d19cf37ee86dc3428b3582d79a90304535505acda3f79381565b60007f0000000000000000000000000000000000000000000000000000000000000000905090565b61090b6115e0565b73ffffffffffffffffffffffffffffffffffffffff168173ffffffffffffffffffffffffffffffffffffffff161461096f576040517f6697b23200000000000000000000000000000000000000000000000000000000815260040160405180910390fd5b6109798282611888565b505050565b806109ab60027fafdaf88ccaceedf25860d75cffacf49572d01e9c3a1769017788d59dd8d968ff8361197b565b600082116109ee576040517f08c379a00000000000000000000000000000000000000000000000000000000081526004016109e590612b0a565b60405180910390fd5b610a006109f9611241565b848461168e565b505050565b610a0d611363565b600073ffffffffffffffffffffffffffffffffffffffff168173ffffffffffffffffffffffffffffffffffffffff1603610a7e57806040517fa5ef3a26000000000000000000000000000000000000000000000000000000008152600401610a7591906127c1565b60405180910390fd5b610aa87fcc5864b50c006efffec16fbcc758b1c2b9725f841f80df83ea738c15e5b23bbc8261088c565b610ad27f05b31cc03ed6ebe148d19cf37ee86dc3428b3582d79a90304535505acda3f7938261088c565b7fe07a7c2a336560fb78652509e7062db7d23c2042dd0394fded8ab52d9c40554281604051610b0191906127c1565b60405180910390a150565b610b14611363565b600073ffffffffffffffffffffffffffffffffffffffff168173ffffffffffffffffffffffffffffffffffffffff1603610b8557806040517fa5ef3a26000000000000000000000000000000000000000000000000000000008152600401610b7c91906127c1565b60405180910390fd5b610baf7fcc5864b50c006efffec16fbcc758b1c2b9725f841f80df83ea738c15e5b23bbc82611017565b610bd97f05b31cc03ed6ebe148d19cf37ee86dc3428b3582d79a90304535505acda3f79382611017565b7f185ded1d663797ac12729923af2d761e9b57bfeef5f753f9707196c10a55724681604051610c0891906127c1565b60405180910390a150565b60008060008373ffffffffffffffffffffffffffffffffffffffff1673ffffffffffffffffffffffffffffffffffffffff168152602001908152602001600020549050919050565b610c63611363565b610c6d60006119f2565b565b62030d4081565b6000600560009054906101000a900473ffffffffffffffffffffffffffffffffffffffff16905090565b60006006600084815260200190815260200160002060000160008373ffffffffffffffffffffffffffffffffffffffff1673ffffffffffffffffffffffffffffffffffffffff16815260200190815260200160002060009054906101000a900460ff16905092915050565b606060048054610d1a90612a67565b80601f0160208091040260200160405190810160405280929190818152602001828054610d4690612a67565b8015610d935780601f10610d6857610100808354040283529160200191610d93565b820191906000526020600020905b815481529060010190602001808311610d7657829003601f168201915b5050505050905090565b80610dca60017fafdaf88ccaceedf25860d75cffacf49572d01e9c3a1769017788d59dd8d968ff8361197b565b60008211610e0d576040517f08c379a0000000000000000000000000000000000000000000000000000000008152600401610e0490612b0a565b60405180910390fd5b610e1e610e18611241565b83611ab8565b5050565b6000801b81565b610e527f05b31cc03ed6ebe148d19cf37ee86dc3428b3582d79a90304535505acda3f793611b3a565b610e9a57610e5e6115e0565b6040517f19a80a5b000000000000000000000000000000000000000000000000000000008152600401610e9191906127c1565b60405180910390fd5b600073ffffffffffffffffffffffffffffffffffffffff168173ffffffffffffffffffffffffffffffffffffffff1603610f0b57806040517f51bae9b4000000000000000000000000000000000000000000000000000000008152600401610f0291906127c1565b60405180910390fd5b610f357fafdaf88ccaceedf25860d75cffacf49572d01e9c3a1769017788d59dd8d968ff8261088c565b7feadd97713222c6e2b7c5e55ffa35b97241da466f873863c5c5edfa089f1234ed81604051610f6491906127c1565b60405180910390a150565b600080610f7a6115e0565b9050610f8781858561168e565b600191505092915050565b80610fbf60007fcc5864b50c006efffec16fbcc758b1c2b9725f841f80df83ea738c15e5b23bbc8361197b565b60008211611002576040517f08c379a0000000000000000000000000000000000000000000000000000000008152600401610ff990612b0a565b60405180910390fd5b61101361100d611241565b8361155e565b5050565b61102082610848565b61102981611782565b6110338383611888565b50505050565b60006110436108db565b905090565b6000600160008473ffffffffffffffffffffffffffffffffffffffff1673ffffffffffffffffffffffffffffffffffffffff16815260200190815260200160002060008373ffffffffffffffffffffffffffffffffffffffff1673ffffffffffffffffffffffffffffffffffffffff16815260200190815260200160002054905092915050565b7fafdaf88ccaceedf25860d75cffacf49572d01e9c3a1769017788d59dd8d968ff81565b61111c7f05b31cc03ed6ebe148d19cf37ee86dc3428b3582d79a90304535505acda3f793611b3a565b611164576111286115e0565b6040517f19a80a5b00000000000000000000000000000000000000000000000000000000815260040161115b91906127c1565b60405180910390fd5b600073ffffffffffffffffffffffffffffffffffffffff168173ffffffffffffffffffffffffffffffffffffffff16036111d557806040517f51bae9b40000000000000000000000000000000000000000000000000000000081526004016111cc91906127c1565b60405180910390fd5b6111ff7fafdaf88ccaceedf25860d75cffacf49572d01e9c3a1769017788d59dd8d968ff82611017565b7f542895d04c6a314fc8bcc6bc627b948e5ce0b964db8948fe076be9922a4dc6e88160405161122e91906127c1565b60405180910390a150565b633b9aca0081565b600061124b611b54565b600760009054906101000a900473ffffffffffffffffffffffffffffffffffffffff16905090565b61127b611363565b600073ffffffffffffffffffffffffffffffffffffffff168173ffffffffffffffffffffffffffffffffffffffff16036112ed5760006040517f1e4fbdf70000000000000000000000000000000000000000000000000000000081526004016112e491906127c1565b60405180910390fd5b6112f6816119f2565b50565b60007f01ffc9a7000000000000000000000000000000000000000000000000000000007bffffffffffffffffffffffffffffffffffffffffffffffffffffffff1916827bffffffffffffffffffffffffffffffffffffffffffffffffffffffff1916149050919050565b61136b6115e0565b73ffffffffffffffffffffffffffffffffffffffff16611389610c76565b73ffffffffffffffffffffffffffffffffffffffff16146113e8576113ac6115e0565b6040517f118cdaa70000000000000000000000000000000000000000000000000000000081526004016113df91906127c1565b60405180910390fd5b565b6113f2611363565b600073ffffffffffffffffffffffffffffffffffffffff168173ffffffffffffffffffffffffffffffffffffffff160361146357806040517f2256d31c00000000000000000000000000000000000000000000000000000000815260040161145a91906127c1565b60405180910390fd5b600073ffffffffffffffffffffffffffffffffffffffff16600760009054906101000a900473ffffffffffffffffffffffffffffffffffffffff1673ffffffffffffffffffffffffffffffffffffffff161461151a57600760009054906101000a900473ffffffffffffffffffffffffffffffffffffffff16816040517f89e662f3000000000000000000000000000000000000000000000000000000008152600401611511929190612b2a565b60405180910390fd5b80600760006101000a81548173ffffffffffffffffffffffffffffffffffffffff021916908373ffffffffffffffffffffffffffffffffffffffff16021790555050565b600073ffffffffffffffffffffffffffffffffffffffff168273ffffffffffffffffffffffffffffffffffffffff16036115d05760006040517fec442f050000000000000000000000000000000000000000000000000000000081526004016115c791906127c1565b60405180910390fd5b6115dc60008383611bde565b5050565b600033905090565b6115f58383836001611c84565b505050565b60006116068484611048565b90507fffffffffffffffffffffffffffffffffffffffffffffffffffffffffffffffff81146116885781811015611678578281836040517ffb8f41b200000000000000000000000000000000000000000000000000000000815260040161166f93929190612b53565b60405180910390fd5b61168784848484036000611c84565b5b50505050565b600073ffffffffffffffffffffffffffffffffffffffff168373ffffffffffffffffffffffffffffffffffffffff16036117005760006040517f96c6fd1e0000000000000000000000000000000000000000000000000000000081526004016116f791906127c1565b60405180910390fd5b600073ffffffffffffffffffffffffffffffffffffffff168273ffffffffffffffffffffffffffffffffffffffff16036117725760006040517fec442f0500000000000000000000000000000000000000000000000000000000815260040161176991906127c1565b60405180910390fd5b61177d838383611bde565b505050565b6117938161178e6115e0565b611e5b565b50565b60006117a28383610ca0565b61187d5760016006600085815260200190815260200160002060000160008473ffffffffffffffffffffffffffffffffffffffff1673ffffffffffffffffffffffffffffffffffffffff16815260200190815260200160002060006101000a81548160ff02191690831515021790555061181a6115e0565b73ffffffffffffffffffffffffffffffffffffffff168273ffffffffffffffffffffffffffffffffffffffff16847f2f8788117e7eff1d82e926ec794901d17c78024a50270940304540a733656f0d60405160405180910390a460019050611882565b600090505b92915050565b60006118948383610ca0565b156119705760006006600085815260200190815260200160002060000160008473ffffffffffffffffffffffffffffffffffffffff1673ffffffffffffffffffffffffffffffffffffffff16815260200190815260200160002060006101000a81548160ff02191690831515021790555061190d6115e0565b73ffffffffffffffffffffffffffffffffffffffff168273ffffffffffffffffffffffffffffffffffffffff16847ff6391f5c32d9c69d2a47ea670b442974b53935d1edc7fd64eb21e047a839171b60405160405180910390a460019050611975565b600090505b92915050565b611983611b54565b61198c81611eac565b61199582611efd565b6119e3576119a16115e0565b8383836040517f03f480310000000000000000000000000000000000000000000000000000000081526004016119da9493929190612c01565b60405180910390fd5b6119ed8382611fe4565b505050565b6000600560009054906101000a900473ffffffffffffffffffffffffffffffffffffffff16905081600560006101000a81548173ffffffffffffffffffffffffffffffffffffffff021916908373ffffffffffffffffffffffffffffffffffffffff1602179055508173ffffffffffffffffffffffffffffffffffffffff168173ffffffffffffffffffffffffffffffffffffffff167f8be0079c531659141344cd1fd0a4f28419497f9722a3daafe3b4186f6b6457e060405160405180910390a35050565b600073ffffffffffffffffffffffffffffffffffffffff168273ffffffffffffffffffffffffffffffffffffffff1603611b2a5760006040517f96c6fd1e000000000000000000000000000000000000000000000000000000008152600401611b2191906127c1565b60405180910390fd5b611b3682600083611bde565b5050565b6000611b4d82611b486115e0565b610ca0565b9050919050565b600073ffffffffffffffffffffffffffffffffffffffff16600760009054906101000a900473ffffffffffffffffffffffffffffffffffffffff1673ffffffffffffffffffffffffffffffffffffffff1603611bdc576040517f0d669d2300000000000000000000000000000000000000000000000000000000815260040160405180910390fd5b565b611be98383836120a7565b600073ffffffffffffffffffffffffffffffffffffffff168373ffffffffffffffffffffffffffffffffffffffff1603611c7f576000611c276108db565b90506000611c3361080f565b905081811115611c7c5780826040517f9e79f854000000000000000000000000000000000000000000000000000000008152600401611c73929190612c46565b60405180910390fd5b50505b505050565b600073ffffffffffffffffffffffffffffffffffffffff168473ffffffffffffffffffffffffffffffffffffffff1603611cf65760006040517fe602df05000000000000000000000000000000000000000000000000000000008152600401611ced91906127c1565b60405180910390fd5b600073ffffffffffffffffffffffffffffffffffffffff168373ffffffffffffffffffffffffffffffffffffffff1603611d685760006040517f94280d62000000000000000000000000000000000000000000000000000000008152600401611d5f91906127c1565b60405180910390fd5b81600160008673ffffffffffffffffffffffffffffffffffffffff1673ffffffffffffffffffffffffffffffffffffffff16815260200190815260200160002060008573ffffffffffffffffffffffffffffffffffffffff1673ffffffffffffffffffffffffffffffffffffffff168152602001908152602001600020819055508015611e55578273ffffffffffffffffffffffffffffffffffffffff168473ffffffffffffffffffffffffffffffffffffffff167f8c5be1e5ebec7d5bd14f71427d1e84f3dd0314c0f7b2291e5b200ac8c7c3b92584604051611e4c9190612606565b60405180910390a35b50505050565b611e658282610ca0565b611ea85780826040517fe2517d3f000000000000000000000000000000000000000000000000000000008152600401611e9f929190612c6f565b60405180910390fd5b5050565b60008103611efa57611ebc6115e0565b816040517f7993c453000000000000000000000000000000000000000000000000000000008152600401611ef1929190612c98565b60405180910390fd5b50565b600080611f086122cc565b905060007fcc5864b50c006efffec16fbcc758b1c2b9725f841f80df83ea738c15e5b23bbc8414611fb4577fafdaf88ccaceedf25860d75cffacf49572d01e9c3a1769017788d59dd8d968ff8414611f61576000611faf565b7fcc5864b50c006efffec16fbcc758b1c2b9725f841f80df83ea738c15e5b23bbc821480611fae57507fafdaf88ccaceedf25860d75cffacf49572d01e9c3a1769017788d59dd8d968ff82145b5b611fd8565b7fcc5864b50c006efffec16fbcc758b1c2b9725f841f80df83ea738c15e5b23bbc82145b90508092505050919050565b6000611fee6122cc565b9050600060086000838152602001908152602001600020600001600085600281111561201d5761201c612b8a565b5b600281111561202f5761202e612b8a565b5b81526020019081526020016000205490506000811415801561205057508083115b156120a15761205d6115e0565b828486846040517f973e0d97000000000000000000000000000000000000000000000000000000008152600401612098959493929190612cc1565b60405180910390fd5b50505050565b600073ffffffffffffffffffffffffffffffffffffffff168373ffffffffffffffffffffffffffffffffffffffff16036120f95780600260008282546120ed9190612d14565b925050819055506121cc565b60008060008573ffffffffffffffffffffffffffffffffffffffff1673ffffffffffffffffffffffffffffffffffffffff16815260200190815260200160002054905081811015612185578381836040517fe450d38c00000000000000000000000000000000000000000000000000000000815260040161217c93929190612b53565b60405180910390fd5b8181036000808673ffffffffffffffffffffffffffffffffffffffff1673ffffffffffffffffffffffffffffffffffffffff16815260200190815260200160002081905550505b600073ffffffffffffffffffffffffffffffffffffffff168273ffffffffffffffffffffffffffffffffffffffff16036122155780600260008282540392505081905550612262565b806000808473ffffffffffffffffffffffffffffffffffffffff1673ffffffffffffffffffffffffffffffffffffffff168152602001908152602001600020600082825401925050819055505b8173ffffffffffffffffffffffffffffffffffffffff168373ffffffffffffffffffffffffffffffffffffffff167fddf252ad1be2c89b69c2b068fc378daa952ba7f163c4a11628f55a4df523b3ef836040516122bf9190612606565b60405180910390a3505050565b60006122f77fcc5864b50c006efffec16fbcc758b1c2b9725f841f80df83ea738c15e5b23bbc611b3a565b15612324577fcc5864b50c006efffec16fbcc758b1c2b9725f841f80df83ea738c15e5b23bbc9050612381565b61234d7fafdaf88ccaceedf25860d75cffacf49572d01e9c3a1769017788d59dd8d968ff611b3a565b1561237a577fafdaf88ccaceedf25860d75cffacf49572d01e9c3a1769017788d59dd8d968ff9050612381565b6000801b90505b90565b600080fd5b60007fffffffff0000000000000000000000000000000000000000000000000000000082169050919050565b6123be81612389565b81146123c957600080fd5b50565b6000813590506123db816123b5565b92915050565b6000602082840312156123f7576123f6612384565b5b6000612405848285016123cc565b91505092915050565b60008115159050919050565b6124238161240e565b82525050565b600060208201905061243e600083018461241a565b92915050565b600073ffffffffffffffffffffffffffffffffffffffff82169050919050565b600061246f82612444565b9050919050565b61247f81612464565b811461248a57600080fd5b50565b60008135905061249c81612476565b92915050565b6000602082840312156124b8576124b7612384565b5b60006124c68482850161248d565b91505092915050565b600081519050919050565b600082825260208201905092915050565b60005b838110156125095780820151818401526020810190506124ee565b60008484015250505050565b6000601f19601f8301169050919050565b6000612531826124cf565b61253b81856124da565b935061254b8185602086016124eb565b61255481612515565b840191505092915050565b600060208201905081810360008301526125798184612526565b905092915050565b6000819050919050565b61259481612581565b811461259f57600080fd5b50565b6000813590506125b18161258b565b92915050565b600080604083850312156125ce576125cd612384565b5b60006125dc8582860161248d565b92505060206125ed858286016125a2565b9150509250929050565b61260081612581565b82525050565b600060208201905061261b60008301846125f7565b92915050565b60008060006060848603121561263a57612639612384565b5b60006126488682870161248d565b93505060206126598682870161248d565b925050604061266a868287016125a2565b9150509250925092565b6000819050919050565b61268781612674565b811461269257600080fd5b50565b6000813590506126a48161267e565b92915050565b6000602082840312156126c0576126bf612384565b5b60006126ce84828501612695565b91505092915050565b6126e081612674565b82525050565b60006020820190506126fb60008301846126d7565b92915050565b6000806040838503121561271857612717612384565b5b600061272685828601612695565b92505060206127378582860161248d565b9150509250929050565b600060ff82169050919050565b61275781612741565b82525050565b6000602082019050612772600083018461274e565b92915050565b600063ffffffff82169050919050565b61279181612778565b82525050565b60006020820190506127ac6000830184612788565b92915050565b6127bb81612464565b82525050565b60006020820190506127d660008301846127b2565b92915050565b6000602082840312156127f2576127f1612384565b5b6000612800848285016125a2565b91505092915050565b600080604083850312156128205761281f612384565b5b600061282e8582860161248d565b925050602061283f8582860161248d565b9150509250929050565b7f4e487b7100000000000000000000000000000000000000000000000000000000600052601160045260246000fd5b60008160011c9050919050565b6000808291508390505b60018511156128cf578086048111156128ab576128aa612849565b5b60018516156128ba5780820291505b80810290506128c885612878565b945061288f565b94509492505050565b6000826128e857600190506129a4565b816128f657600090506129a4565b816001811461290c576002811461291657612945565b60019150506129a4565b60ff84111561292857612927612849565b5b8360020a91508482111561293f5761293e612849565b5b506129a4565b5060208310610133831016604e8410600b841016171561297a5782820a90508381111561297557612974612849565b5b6129a4565b6129878484846001612885565b9250905081840481111561299e5761299d612849565b5b81810290505b9392505050565b60006129b682612581565b91506129c183612741565b92506129ee7fffffffffffffffffffffffffffffffffffffffffffffffffffffffffffffffff84846128d8565b905092915050565b6000612a0182612581565b9150612a0c83612581565b9250828202612a1a81612581565b91508282048414831517612a3157612a30612849565b5b5092915050565b7f4e487b7100000000000000000000000000000000000000000000000000000000600052602260045260246000fd5b60006002820490506001821680612a7f57607f821691505b602082108103612a9257612a91612a38565b5b50919050565b7f496e76616c696420616d6f756e743a204d75737420626520677265617465722060008201527f7468616e20300000000000000000000000000000000000000000000000000000602082015250565b6000612af46026836124da565b9150612aff82612a98565b604082019050919050565b60006020820190508181036000830152612b2381612ae7565b9050919050565b6000604082019050612b3f60008301856127b2565b612b4c60208301846127b2565b9392505050565b6000606082019050612b6860008301866127b2565b612b7560208301856125f7565b612b8260408301846125f7565b949350505050565b7f4e487b7100000000000000000000000000000000000000000000000000000000600052602160045260246000fd5b60038110612bca57612bc9612b8a565b5b50565b6000819050612bdb82612bb9565b919050565b6000612beb82612bcd565b9050919050565b612bfb81612be0565b82525050565b6000608082019050612c1660008301876127b2565b612c236020830186612bf2565b612c3060408301856126d7565b612c3d60608301846125f7565b95945050505050565b6000604082019050612c5b60008301856125f7565b612c6860208301846125f7565b9392505050565b6000604082019050612c8460008301856127b2565b612c9160208301846126d7565b9392505050565b6000604082019050612cad60008301856127b2565b612cba60208301846125f7565b9392505050565b600060a082019050612cd660008301886127b2565b612ce360208301876126d7565b612cf060408301866125f7565b612cfd6060830185612bf2565b612d0a60808301846125f7565b9695505050505050565b6000612d1f82612581565b9150612d2a83612581565b9250828201905080821115612d4257612d41612849565b5b9291505056fea264697066735822122097d407c5a08415938b797f9659524cb2b7497f518c325945ac2674d1c0a89b0264736f6c634300081b0033",
          "opcodes": "PUSH1 0xA0 PUSH1 0x40 MSTORE CALLVALUE DUP1 ISZERO PUSH2 0x10 JUMPI PUSH1 0x0 DUP1 REVERT JUMPDEST POP PUSH2 0x1F PUSH2 0x261 PUSH1 0x20 SHL PUSH1 0x20 SHR JUMP JUMPDEST PUSH2 0x2D PUSH2 0x269 PUSH1 0x20 SHL PUSH1 0x20 SHR JUMP JUMPDEST PUSH1 0xA PUSH2 0x39 SWAP2 SWAP1 PUSH2 0x69C JUMP JUMPDEST PUSH4 0x3B9ACA00 PUSH4 0xFFFFFFFF AND PUSH2 0x4E SWAP2 SWAP1 PUSH2 0x6E7 JUMP JUMPDEST PUSH1 0x40 MLOAD DUP1 PUSH1 0x40 ADD PUSH1 0x40 MSTORE DUP1 PUSH1 0x7 DUP2 MSTORE PUSH1 0x20 ADD PUSH32 0x582D54696D657300000000000000000000000000000000000000000000000000 DUP2 MSTORE POP PUSH1 0x40 MLOAD DUP1 PUSH1 0x40 ADD PUSH1 0x40 MSTORE DUP1 PUSH1 0x6 DUP2 MSTORE PUSH1 0x20 ADD PUSH32 0x5854494D45530000000000000000000000000000000000000000000000000000 DUP2 MSTORE POP DUP2 PUSH1 0x3 SWAP1 DUP2 PUSH2 0xC9 SWAP2 SWAP1 PUSH2 0x96F JUMP JUMPDEST POP DUP1 PUSH1 0x4 SWAP1 DUP2 PUSH2 0xD9 SWAP2 SWAP1 PUSH2 0x96F JUMP JUMPDEST POP POP POP PUSH1 0x0 DUP2 SUB PUSH2 0x122 JUMPI PUSH1 0x0 PUSH1 0x40 MLOAD PUSH32 0x392E1E2700000000000000000000000000000000000000000000000000000000 DUP2 MSTORE PUSH1 0x4 ADD PUSH2 0x119 SWAP2 SWAP1 PUSH2 0xA7C JUMP JUMPDEST PUSH1 0x40 MLOAD DUP1 SWAP2 SUB SWAP1 REVERT JUMPDEST DUP1 PUSH1 0x80 DUP2 DUP2 MSTORE POP POP POP PUSH1 0x0 PUSH20 0xFFFFFFFFFFFFFFFFFFFFFFFFFFFFFFFFFFFFFFFF AND DUP2 PUSH20 0xFFFFFFFFFFFFFFFFFFFFFFFFFFFFFFFFFFFFFFFF AND SUB PUSH2 0x19D JUMPI PUSH1 0x0 PUSH1 0x40 MLOAD PUSH32 0x1E4FBDF700000000000000000000000000000000000000000000000000000000 DUP2 MSTORE PUSH1 0x4 ADD PUSH2 0x194 SWAP2 SWAP1 PUSH2 0xAD8 JUMP JUMPDEST PUSH1 0x40 MLOAD DUP1 SWAP2 SUB SWAP1 REVERT JUMPDEST PUSH2 0x1AC DUP2 PUSH2 0x272 PUSH1 0x20 SHL PUSH1 0x20 SHR JUMP JUMPDEST POP PUSH2 0x1CD PUSH1 0x0 DUP1 SHL PUSH2 0x1C2 PUSH2 0x261 PUSH1 0x20 SHL PUSH1 0x20 SHR JUMP JUMPDEST PUSH2 0x338 PUSH1 0x20 SHL PUSH1 0x20 SHR JUMP JUMPDEST POP PUSH2 0x20B PUSH32 0x5B31CC03ED6EBE148D19CF37EE86DC3428B3582D79A90304535505ACDA3F793 PUSH2 0x200 PUSH2 0x261 PUSH1 0x20 SHL PUSH1 0x20 SHR JUMP JUMPDEST PUSH2 0x338 PUSH1 0x20 SHL PUSH1 0x20 SHR JUMP JUMPDEST POP PUSH2 0x25C PUSH32 0xAFDAF88CCACEEDF25860D75CFFACF49572D01E9C3A1769017788D59DD8D968FF PUSH32 0x5B31CC03ED6EBE148D19CF37EE86DC3428B3582D79A90304535505ACDA3F793 PUSH2 0x436 PUSH1 0x20 SHL PUSH1 0x20 SHR JUMP JUMPDEST PUSH2 0xAF3 JUMP JUMPDEST PUSH1 0x0 CALLER SWAP1 POP SWAP1 JUMP JUMPDEST PUSH1 0x0 PUSH1 0x12 SWAP1 POP SWAP1 JUMP JUMPDEST PUSH1 0x0 PUSH1 0x5 PUSH1 0x0 SWAP1 SLOAD SWAP1 PUSH2 0x100 EXP SWAP1 DIV PUSH20 0xFFFFFFFFFFFFFFFFFFFFFFFFFFFFFFFFFFFFFFFF AND SWAP1 POP DUP2 PUSH1 0x5 PUSH1 0x0 PUSH2 0x100 EXP DUP2 SLOAD DUP2 PUSH20 0xFFFFFFFFFFFFFFFFFFFFFFFFFFFFFFFFFFFFFFFF MUL NOT AND SWAP1 DUP4 PUSH20 0xFFFFFFFFFFFFFFFFFFFFFFFFFFFFFFFFFFFFFFFF AND MUL OR SWAP1 SSTORE POP DUP2 PUSH20 0xFFFFFFFFFFFFFFFFFFFFFFFFFFFFFFFFFFFFFFFF AND DUP2 PUSH20 0xFFFFFFFFFFFFFFFFFFFFFFFFFFFFFFFFFFFFFFFF AND PUSH32 0x8BE0079C531659141344CD1FD0A4F28419497F9722A3DAAFE3B4186F6B6457E0 PUSH1 0x40 MLOAD PUSH1 0x40 MLOAD DUP1 SWAP2 SUB SWAP1 LOG3 POP POP JUMP JUMPDEST PUSH1 0x0 PUSH2 0x34A DUP4 DUP4 PUSH2 0x498 PUSH1 0x20 SHL PUSH1 0x20 SHR JUMP JUMPDEST PUSH2 0x42B JUMPI PUSH1 0x1 PUSH1 0x6 PUSH1 0x0 DUP6 DUP2 MSTORE PUSH1 0x20 ADD SWAP1 DUP2 MSTORE PUSH1 0x20 ADD PUSH1 0x0 KECCAK256 PUSH1 0x0 ADD PUSH1 0x0 DUP5 PUSH20 0xFFFFFFFFFFFFFFFFFFFFFFFFFFFFFFFFFFFFFFFF AND PUSH20 0xFFFFFFFFFFFFFFFFFFFFFFFFFFFFFFFFFFFFFFFF AND DUP2 MSTORE PUSH1 0x20 ADD SWAP1 DUP2 MSTORE PUSH1 0x20 ADD PUSH1 0x0 KECCAK256 PUSH1 0x0 PUSH2 0x100 EXP DUP2 SLOAD DUP2 PUSH1 0xFF MUL NOT AND SWAP1 DUP4 ISZERO ISZERO MUL OR SWAP1 SSTORE POP PUSH2 0x3C8 PUSH2 0x261 PUSH1 0x20 SHL PUSH1 0x20 SHR JUMP JUMPDEST PUSH20 0xFFFFFFFFFFFFFFFFFFFFFFFFFFFFFFFFFFFFFFFF AND DUP3 PUSH20 0xFFFFFFFFFFFFFFFFFFFFFFFFFFFFFFFFFFFFFFFF AND DUP5 PUSH32 0x2F8788117E7EFF1D82E926EC794901D17C78024A50270940304540A733656F0D PUSH1 0x40 MLOAD PUSH1 0x40 MLOAD DUP1 SWAP2 SUB SWAP1 LOG4 PUSH1 0x1 SWAP1 POP PUSH2 0x430 JUMP JUMPDEST PUSH1 0x0 SWAP1 POP JUMPDEST SWAP3 SWAP2 POP POP JUMP JUMPDEST PUSH1 0x0 PUSH2 0x447 DUP4 PUSH2 0x503 PUSH1 0x20 SHL PUSH1 0x20 SHR JUMP JUMPDEST SWAP1 POP DUP2 PUSH1 0x6 PUSH1 0x0 DUP6 DUP2 MSTORE PUSH1 0x20 ADD SWAP1 DUP2 MSTORE PUSH1 0x20 ADD PUSH1 0x0 KECCAK256 PUSH1 0x1 ADD DUP2 SWAP1 SSTORE POP DUP2 DUP2 DUP5 PUSH32 0xBD79B86FFE0AB8E8776151514217CD7CACD52C909F66475C3AF44E129F0B00FF PUSH1 0x40 MLOAD PUSH1 0x40 MLOAD DUP1 SWAP2 SUB SWAP1 LOG4 POP POP POP JUMP JUMPDEST PUSH1 0x0 PUSH1 0x6 PUSH1 0x0 DUP5 DUP2 MSTORE PUSH1 0x20 ADD SWAP1 DUP2 MSTORE PUSH1 0x20 ADD PUSH1 0x0 KECCAK256 PUSH1 0x0 ADD PUSH1 0x0 DUP4 PUSH20 0xFFFFFFFFFFFFFFFFFFFFFFFFFFFFFFFFFFFFFFFF AND PUSH20 0xFFFFFFFFFFFFFFFFFFFFFFFFFFFFFFFFFFFFFFFF AND DUP2 MSTORE PUSH1 0x20 ADD SWAP1 DUP2 MSTORE PUSH1 0x20 ADD PUSH1 0x0 KECCAK256 PUSH1 0x0 SWAP1 SLOAD SWAP1 PUSH2 0x100 EXP SWAP1 DIV PUSH1 0xFF AND SWAP1 POP SWAP3 SWAP2 POP POP JUMP JUMPDEST PUSH1 0x0 PUSH1 0x6 PUSH1 0x0 DUP4 DUP2 MSTORE PUSH1 0x20 ADD SWAP1 DUP2 MSTORE PUSH1 0x20 ADD PUSH1 0x0 KECCAK256 PUSH1 0x1 ADD SLOAD SWAP1 POP SWAP2 SWAP1 POP JUMP JUMPDEST PUSH32 0x4E487B7100000000000000000000000000000000000000000000000000000000 PUSH1 0x0 MSTORE PUSH1 0x11 PUSH1 0x4 MSTORE PUSH1 0x24 PUSH1 0x0 REVERT JUMPDEST PUSH1 0x0 DUP2 PUSH1 0x1 SHR SWAP1 POP SWAP2 SWAP1 POP JUMP JUMPDEST PUSH1 0x0 DUP1 DUP3 SWAP2 POP DUP4 SWAP1 POP JUMPDEST PUSH1 0x1 DUP6 GT ISZERO PUSH2 0x5A9 JUMPI DUP1 DUP7 DIV DUP2 GT ISZERO PUSH2 0x585 JUMPI PUSH2 0x584 PUSH2 0x523 JUMP JUMPDEST JUMPDEST PUSH1 0x1 DUP6 AND ISZERO PUSH2 0x594 JUMPI DUP1 DUP3 MUL SWAP2 POP JUMPDEST DUP1 DUP2 MUL SWAP1 POP PUSH2 0x5A2 DUP6 PUSH2 0x552 JUMP JUMPDEST SWAP5 POP PUSH2 0x569 JUMP JUMPDEST SWAP5 POP SWAP5 SWAP3 POP POP POP JUMP JUMPDEST PUSH1 0x0 DUP3 PUSH2 0x5C2 JUMPI PUSH1 0x1 SWAP1 POP PUSH2 0x67E JUMP JUMPDEST DUP2 PUSH2 0x5D0 JUMPI PUSH1 0x0 SWAP1 POP PUSH2 0x67E JUMP JUMPDEST DUP2 PUSH1 0x1 DUP2 EQ PUSH2 0x5E6 JUMPI PUSH1 0x2 DUP2 EQ PUSH2 0x5F0 JUMPI PUSH2 0x61F JUMP JUMPDEST PUSH1 0x1 SWAP2 POP POP PUSH2 0x67E JUMP JUMPDEST PUSH1 0xFF DUP5 GT ISZERO PUSH2 0x602 JUMPI PUSH2 0x601 PUSH2 0x523 JUMP JUMPDEST JUMPDEST DUP4 PUSH1 0x2 EXP SWAP2 POP DUP5 DUP3 GT ISZERO PUSH2 0x619 JUMPI PUSH2 0x618 PUSH2 0x523 JUMP JUMPDEST JUMPDEST POP PUSH2 0x67E JUMP JUMPDEST POP PUSH1 0x20 DUP4 LT PUSH2 0x133 DUP4 LT AND PUSH1 0x4E DUP5 LT PUSH1 0xB DUP5 LT AND OR ISZERO PUSH2 0x654 JUMPI DUP3 DUP3 EXP SWAP1 POP DUP4 DUP2 GT ISZERO PUSH2 0x64F JUMPI PUSH2 0x64E PUSH2 0x523 JUMP JUMPDEST JUMPDEST PUSH2 0x67E JUMP JUMPDEST PUSH2 0x661 DUP5 DUP5 DUP5 PUSH1 0x1 PUSH2 0x55F JUMP JUMPDEST SWAP3 POP SWAP1 POP DUP2 DUP5 DIV DUP2 GT ISZERO PUSH2 0x678 JUMPI PUSH2 0x677 PUSH2 0x523 JUMP JUMPDEST JUMPDEST DUP2 DUP2 MUL SWAP1 POP JUMPDEST SWAP4 SWAP3 POP POP POP JUMP JUMPDEST PUSH1 0x0 DUP2 SWAP1 POP SWAP2 SWAP1 POP JUMP JUMPDEST PUSH1 0x0 PUSH1 0xFF DUP3 AND SWAP1 POP SWAP2 SWAP1 POP JUMP JUMPDEST PUSH1 0x0 PUSH2 0x6A7 DUP3 PUSH2 0x685 JUMP JUMPDEST SWAP2 POP PUSH2 0x6B2 DUP4 PUSH2 0x68F JUMP JUMPDEST SWAP3 POP PUSH2 0x6DF PUSH32 0xFFFFFFFFFFFFFFFFFFFFFFFFFFFFFFFFFFFFFFFFFFFFFFFFFFFFFFFFFFFFFFFF DUP5 DUP5 PUSH2 0x5B2 JUMP JUMPDEST SWAP1 POP SWAP3 SWAP2 POP POP JUMP JUMPDEST PUSH1 0x0 PUSH2 0x6F2 DUP3 PUSH2 0x685 JUMP JUMPDEST SWAP2 POP PUSH2 0x6FD DUP4 PUSH2 0x685 JUMP JUMPDEST SWAP3 POP DUP3 DUP3 MUL PUSH2 0x70B DUP2 PUSH2 0x685 JUMP JUMPDEST SWAP2 POP DUP3 DUP3 DIV DUP5 EQ DUP4 ISZERO OR PUSH2 0x722 JUMPI PUSH2 0x721 PUSH2 0x523 JUMP JUMPDEST JUMPDEST POP SWAP3 SWAP2 POP POP JUMP JUMPDEST PUSH1 0x0 DUP2 MLOAD SWAP1 POP SWAP2 SWAP1 POP JUMP JUMPDEST PUSH32 0x4E487B7100000000000000000000000000000000000000000000000000000000 PUSH1 0x0 MSTORE PUSH1 0x41 PUSH1 0x4 MSTORE PUSH1 0x24 PUSH1 0x0 REVERT JUMPDEST PUSH32 0x4E487B7100000000000000000000000000000000000000000000000000000000 PUSH1 0x0 MSTORE PUSH1 0x22 PUSH1 0x4 MSTORE PUSH1 0x24 PUSH1 0x0 REVERT JUMPDEST PUSH1 0x0 PUSH1 0x2 DUP3 DIV SWAP1 POP PUSH1 0x1 DUP3 AND DUP1 PUSH2 0x7AA JUMPI PUSH1 0x7F DUP3 AND SWAP2 POP JUMPDEST PUSH1 0x20 DUP3 LT DUP2 SUB PUSH2 0x7BD JUMPI PUSH2 0x7BC PUSH2 0x763 JUMP JUMPDEST JUMPDEST POP SWAP2 SWAP1 POP JUMP JUMPDEST PUSH1 0x0 DUP2 SWAP1 POP DUP2 PUSH1 0x0 MSTORE PUSH1 0x20 PUSH1 0x0 KECCAK256 SWAP1 POP SWAP2 SWAP1 POP JUMP JUMPDEST PUSH1 0x0 PUSH1 0x20 PUSH1 0x1F DUP4 ADD DIV SWAP1 POP SWAP2 SWAP1 POP JUMP JUMPDEST PUSH1 0x0 DUP3 DUP3 SHL SWAP1 POP SWAP3 SWAP2 POP POP JUMP JUMPDEST PUSH1 0x0 PUSH1 0x8 DUP4 MUL PUSH2 0x825 PUSH32 0xFFFFFFFFFFFFFFFFFFFFFFFFFFFFFFFFFFFFFFFFFFFFFFFFFFFFFFFFFFFFFFFF DUP3 PUSH2 0x7E8 JUMP JUMPDEST PUSH2 0x82F DUP7 DUP4 PUSH2 0x7E8 JUMP JUMPDEST SWAP6 POP DUP1 NOT DUP5 AND SWAP4 POP DUP1 DUP7 AND DUP5 OR SWAP3 POP POP POP SWAP4 SWAP3 POP POP POP JUMP JUMPDEST PUSH1 0x0 DUP2 SWAP1 POP SWAP2 SWAP1 POP JUMP JUMPDEST PUSH1 0x0 PUSH2 0x86C PUSH2 0x867 PUSH2 0x862 DUP5 PUSH2 0x685 JUMP JUMPDEST PUSH2 0x847 JUMP JUMPDEST PUSH2 0x685 JUMP JUMPDEST SWAP1 POP SWAP2 SWAP1 POP JUMP JUMPDEST PUSH1 0x0 DUP2 SWAP1 POP SWAP2 SWAP1 POP JUMP JUMPDEST PUSH2 0x886 DUP4 PUSH2 0x851 JUMP JUMPDEST PUSH2 0x89A PUSH2 0x892 DUP3 PUSH2 0x873 JUMP JUMPDEST DUP5 DUP5 SLOAD PUSH2 0x7F5 JUMP JUMPDEST DUP3 SSTORE POP POP POP POP JUMP JUMPDEST PUSH1 0x0 SWAP1 JUMP JUMPDEST PUSH2 0x8AF PUSH2 0x8A2 JUMP JUMPDEST PUSH2 0x8BA DUP2 DUP5 DUP5 PUSH2 0x87D JUMP JUMPDEST POP POP POP JUMP JUMPDEST JUMPDEST DUP2 DUP2 LT ISZERO PUSH2 0x8DE JUMPI PUSH2 0x8D3 PUSH1 0x0 DUP3 PUSH2 0x8A7 JUMP JUMPDEST PUSH1 0x1 DUP2 ADD SWAP1 POP PUSH2 0x8C0 JUMP JUMPDEST POP POP JUMP JUMPDEST PUSH1 0x1F DUP3 GT ISZERO PUSH2 0x923 JUMPI PUSH2 0x8F4 DUP2 PUSH2 0x7C3 JUMP JUMPDEST PUSH2 0x8FD DUP5 PUSH2 0x7D8 JUMP JUMPDEST DUP2 ADD PUSH1 0x20 DUP6 LT ISZERO PUSH2 0x90C JUMPI DUP2 SWAP1 POP JUMPDEST PUSH2 0x920 PUSH2 0x918 DUP6 PUSH2 0x7D8 JUMP JUMPDEST DUP4 ADD DUP3 PUSH2 0x8BF JUMP JUMPDEST POP POP JUMPDEST POP POP POP JUMP JUMPDEST PUSH1 0x0 DUP3 DUP3 SHR SWAP1 POP SWAP3 SWAP2 POP POP JUMP JUMPDEST PUSH1 0x0 PUSH2 0x946 PUSH1 0x0 NOT DUP5 PUSH1 0x8 MUL PUSH2 0x928 JUMP JUMPDEST NOT DUP1 DUP4 AND SWAP2 POP POP SWAP3 SWAP2 POP POP JUMP JUMPDEST PUSH1 0x0 PUSH2 0x95F DUP4 DUP4 PUSH2 0x935 JUMP JUMPDEST SWAP2 POP DUP3 PUSH1 0x2 MUL DUP3 OR SWAP1 POP SWAP3 SWAP2 POP POP JUMP JUMPDEST PUSH2 0x978 DUP3 PUSH2 0x729 JUMP JUMPDEST PUSH8 0xFFFFFFFFFFFFFFFF DUP2 GT ISZERO PUSH2 0x991 JUMPI PUSH2 0x990 PUSH2 0x734 JUMP JUMPDEST JUMPDEST PUSH2 0x99B DUP3 SLOAD PUSH2 0x792 JUMP JUMPDEST PUSH2 0x9A6 DUP3 DUP3 DUP6 PUSH2 0x8E2 JUMP JUMPDEST PUSH1 0x0 PUSH1 0x20 SWAP1 POP PUSH1 0x1F DUP4 GT PUSH1 0x1 DUP2 EQ PUSH2 0x9D9 JUMPI PUSH1 0x0 DUP5 ISZERO PUSH2 0x9C7 JUMPI DUP3 DUP8 ADD MLOAD SWAP1 POP JUMPDEST PUSH2 0x9D1 DUP6 DUP3 PUSH2 0x953 JUMP JUMPDEST DUP7 SSTORE POP PUSH2 0xA39 JUMP JUMPDEST PUSH1 0x1F NOT DUP5 AND PUSH2 0x9E7 DUP7 PUSH2 0x7C3 JUMP JUMPDEST PUSH1 0x0 JUMPDEST DUP3 DUP2 LT ISZERO PUSH2 0xA0F JUMPI DUP5 DUP10 ADD MLOAD DUP3 SSTORE PUSH1 0x1 DUP3 ADD SWAP2 POP PUSH1 0x20 DUP6 ADD SWAP5 POP PUSH1 0x20 DUP2 ADD SWAP1 POP PUSH2 0x9EA JUMP JUMPDEST DUP7 DUP4 LT ISZERO PUSH2 0xA2C JUMPI DUP5 DUP10 ADD MLOAD PUSH2 0xA28 PUSH1 0x1F DUP10 AND DUP3 PUSH2 0x935 JUMP JUMPDEST DUP4 SSTORE POP JUMPDEST PUSH1 0x1 PUSH1 0x2 DUP9 MUL ADD DUP9 SSTORE POP POP POP JUMPDEST POP POP POP POP POP POP JUMP JUMPDEST PUSH1 0x0 DUP2 SWAP1 POP SWAP2 SWAP1 POP JUMP JUMPDEST PUSH1 0x0 PUSH2 0xA66 PUSH2 0xA61 PUSH2 0xA5C DUP5 PUSH2 0xA41 JUMP JUMPDEST PUSH2 0x847 JUMP JUMPDEST PUSH2 0x685 JUMP JUMPDEST SWAP1 POP SWAP2 SWAP1 POP JUMP JUMPDEST PUSH2 0xA76 DUP2 PUSH2 0xA4B JUMP JUMPDEST DUP3 MSTORE POP POP JUMP JUMPDEST PUSH1 0x0 PUSH1 0x20 DUP3 ADD SWAP1 POP PUSH2 0xA91 PUSH1 0x0 DUP4 ADD DUP5 PUSH2 0xA6D JUMP JUMPDEST SWAP3 SWAP2 POP POP JUMP JUMPDEST PUSH1 0x0 PUSH20 0xFFFFFFFFFFFFFFFFFFFFFFFFFFFFFFFFFFFFFFFF DUP3 AND SWAP1 POP SWAP2 SWAP1 POP JUMP JUMPDEST PUSH1 0x0 PUSH2 0xAC2 DUP3 PUSH2 0xA97 JUMP JUMPDEST SWAP1 POP SWAP2 SWAP1 POP JUMP JUMPDEST PUSH2 0xAD2 DUP2 PUSH2 0xAB7 JUMP JUMPDEST DUP3 MSTORE POP POP JUMP JUMPDEST PUSH1 0x0 PUSH1 0x20 DUP3 ADD SWAP1 POP PUSH2 0xAED PUSH1 0x0 DUP4 ADD DUP5 PUSH2 0xAC9 JUMP JUMPDEST SWAP3 SWAP2 POP POP JUMP JUMPDEST PUSH1 0x80 MLOAD PUSH2 0x2D7E PUSH2 0xB0E PUSH1 0x0 CODECOPY PUSH1 0x0 PUSH2 0x8DF ADD MSTORE PUSH2 0x2D7E PUSH1 0x0 RETURN INVALID PUSH1 0x80 PUSH1 0x40 MSTORE CALLVALUE DUP1 ISZERO PUSH2 0x10 JUMPI PUSH1 0x0 DUP1 REVERT JUMPDEST POP PUSH1 0x4 CALLDATASIZE LT PUSH2 0x211 JUMPI PUSH1 0x0 CALLDATALOAD PUSH1 0xE0 SHR DUP1 PUSH4 0x715018A6 GT PUSH2 0x125 JUMPI DUP1 PUSH4 0xBD0AE394 GT PUSH2 0xAD JUMPI DUP1 PUSH4 0xE160CD08 GT PUSH2 0x7C JUMPI DUP1 PUSH4 0xE160CD08 EQ PUSH2 0x602 JUMPI DUP1 PUSH4 0xE1CCADCF EQ PUSH2 0x620 JUMPI DUP1 PUSH4 0xE489D510 EQ PUSH2 0x63C JUMPI DUP1 PUSH4 0xE520FC7E EQ PUSH2 0x65A JUMPI DUP1 PUSH4 0xF2FDE38B EQ PUSH2 0x678 JUMPI PUSH2 0x211 JUMP JUMPDEST DUP1 PUSH4 0xBD0AE394 EQ PUSH2 0x57C JUMPI DUP1 PUSH4 0xD547741F EQ PUSH2 0x598 JUMPI DUP1 PUSH4 0xD5ABEB01 EQ PUSH2 0x5B4 JUMPI DUP1 PUSH4 0xDD62ED3E EQ PUSH2 0x5D2 JUMPI PUSH2 0x211 JUMP JUMPDEST DUP1 PUSH4 0x95D89B41 GT PUSH2 0xF4 JUMPI DUP1 PUSH4 0x95D89B41 EQ PUSH2 0x4D8 JUMPI DUP1 PUSH4 0x99D23277 EQ PUSH2 0x4F6 JUMPI DUP1 PUSH4 0xA217FDDF EQ PUSH2 0x512 JUMPI DUP1 PUSH4 0xA5465F40 EQ PUSH2 0x530 JUMPI DUP1 PUSH4 0xA9059CBB EQ PUSH2 0x54C JUMPI PUSH2 0x211 JUMP JUMPDEST DUP1 PUSH4 0x715018A6 EQ PUSH2 0x462 JUMPI DUP1 PUSH4 0x80BD5996 EQ PUSH2 0x46C JUMPI DUP1 PUSH4 0x8DA5CB5B EQ PUSH2 0x48A JUMPI DUP1 PUSH4 0x91D14854 EQ PUSH2 0x4A8 JUMPI PUSH2 0x211 JUMP JUMPDEST DUP1 PUSH4 0x2F2FF15D GT PUSH2 0x1A8 JUMPI DUP1 PUSH4 0x36568ABE GT PUSH2 0x177 JUMPI DUP1 PUSH4 0x36568ABE EQ PUSH2 0x3C2 JUMPI DUP1 PUSH4 0x37D5534E EQ PUSH2 0x3DE JUMPI DUP1 PUSH4 0x39AE5108 EQ PUSH2 0x3FA JUMPI DUP1 PUSH4 0x469A8DBD EQ PUSH2 0x416 JUMPI DUP1 PUSH4 0x70A08231 EQ PUSH2 0x432 JUMPI PUSH2 0x211 JUMP JUMPDEST DUP1 PUSH4 0x2F2FF15D EQ PUSH2 0x34C JUMPI DUP1 PUSH4 0x313CE567 EQ PUSH2 0x368 JUMPI DUP1 PUSH4 0x32544A62 EQ PUSH2 0x386 JUMPI DUP1 PUSH4 0x355274EA EQ PUSH2 0x3A4 JUMPI PUSH2 0x211 JUMP JUMPDEST DUP1 PUSH4 0x18160DDD GT PUSH2 0x1E4 JUMPI DUP1 PUSH4 0x18160DDD EQ PUSH2 0x2B0 JUMPI DUP1 PUSH4 0x23B872DD EQ PUSH2 0x2CE JUMPI DUP1 PUSH4 0x248A9CA3 EQ PUSH2 0x2FE JUMPI DUP1 PUSH4 0x2F1F6879 EQ PUSH2 0x32E JUMPI PUSH2 0x211 JUMP JUMPDEST DUP1 PUSH4 0x1FFC9A7 EQ PUSH2 0x216 JUMPI DUP1 PUSH4 0x254E8B0 EQ PUSH2 0x246 JUMPI DUP1 PUSH4 0x6FDDE03 EQ PUSH2 0x262 JUMPI DUP1 PUSH4 0x95EA7B3 EQ PUSH2 0x280 JUMPI JUMPDEST PUSH1 0x0 DUP1 REVERT JUMPDEST PUSH2 0x230 PUSH1 0x4 DUP1 CALLDATASIZE SUB DUP2 ADD SWAP1 PUSH2 0x22B SWAP2 SWAP1 PUSH2 0x23E1 JUMP JUMPDEST PUSH2 0x694 JUMP JUMPDEST PUSH1 0x40 MLOAD PUSH2 0x23D SWAP2 SWAP1 PUSH2 0x2429 JUMP JUMPDEST PUSH1 0x40 MLOAD DUP1 SWAP2 SUB SWAP1 RETURN JUMPDEST PUSH2 0x260 PUSH1 0x4 DUP1 CALLDATASIZE SUB DUP2 ADD SWAP1 PUSH2 0x25B SWAP2 SWAP1 PUSH2 0x24A2 JUMP JUMPDEST PUSH2 0x70E JUMP JUMPDEST STOP JUMPDEST PUSH2 0x26A PUSH2 0x75A JUMP JUMPDEST PUSH1 0x40 MLOAD PUSH2 0x277 SWAP2 SWAP1 PUSH2 0x255F JUMP JUMPDEST PUSH1 0x40 MLOAD DUP1 SWAP2 SUB SWAP1 RETURN JUMPDEST PUSH2 0x29A PUSH1 0x4 DUP1 CALLDATASIZE SUB DUP2 ADD SWAP1 PUSH2 0x295 SWAP2 SWAP1 PUSH2 0x25B7 JUMP JUMPDEST PUSH2 0x7EC JUMP JUMPDEST PUSH1 0x40 MLOAD PUSH2 0x2A7 SWAP2 SWAP1 PUSH2 0x2429 JUMP JUMPDEST PUSH1 0x40 MLOAD DUP1 SWAP2 SUB SWAP1 RETURN JUMPDEST PUSH2 0x2B8 PUSH2 0x80F JUMP JUMPDEST PUSH1 0x40 MLOAD PUSH2 0x2C5 SWAP2 SWAP1 PUSH2 0x2606 JUMP JUMPDEST PUSH1 0x40 MLOAD DUP1 SWAP2 SUB SWAP1 RETURN JUMPDEST PUSH2 0x2E8 PUSH1 0x4 DUP1 CALLDATASIZE SUB DUP2 ADD SWAP1 PUSH2 0x2E3 SWAP2 SWAP1 PUSH2 0x2621 JUMP JUMPDEST PUSH2 0x819 JUMP JUMPDEST PUSH1 0x40 MLOAD PUSH2 0x2F5 SWAP2 SWAP1 PUSH2 0x2429 JUMP JUMPDEST PUSH1 0x40 MLOAD DUP1 SWAP2 SUB SWAP1 RETURN JUMPDEST PUSH2 0x318 PUSH1 0x4 DUP1 CALLDATASIZE SUB DUP2 ADD SWAP1 PUSH2 0x313 SWAP2 SWAP1 PUSH2 0x26AA JUMP JUMPDEST PUSH2 0x848 JUMP JUMPDEST PUSH1 0x40 MLOAD PUSH2 0x325 SWAP2 SWAP1 PUSH2 0x26E6 JUMP JUMPDEST PUSH1 0x40 MLOAD DUP1 SWAP2 SUB SWAP1 RETURN JUMPDEST PUSH2 0x336 PUSH2 0x868 JUMP JUMPDEST PUSH1 0x40 MLOAD PUSH2 0x343 SWAP2 SWAP1 PUSH2 0x26E6 JUMP JUMPDEST PUSH1 0x40 MLOAD DUP1 SWAP2 SUB SWAP1 RETURN JUMPDEST PUSH2 0x366 PUSH1 0x4 DUP1 CALLDATASIZE SUB DUP2 ADD SWAP1 PUSH2 0x361 SWAP2 SWAP1 PUSH2 0x2701 JUMP JUMPDEST PUSH2 0x88C JUMP JUMPDEST STOP JUMPDEST PUSH2 0x370 PUSH2 0x8AE JUMP JUMPDEST PUSH1 0x40 MLOAD PUSH2 0x37D SWAP2 SWAP1 PUSH2 0x275D JUMP JUMPDEST PUSH1 0x40 MLOAD DUP1 SWAP2 SUB SWAP1 RETURN JUMPDEST PUSH2 0x38E PUSH2 0x8B7 JUMP JUMPDEST PUSH1 0x40 MLOAD PUSH2 0x39B SWAP2 SWAP1 PUSH2 0x26E6 JUMP JUMPDEST PUSH1 0x40 MLOAD DUP1 SWAP2 SUB SWAP1 RETURN JUMPDEST PUSH2 0x3AC PUSH2 0x8DB JUMP JUMPDEST PUSH1 0x40 MLOAD PUSH2 0x3B9 SWAP2 SWAP1 PUSH2 0x2606 JUMP JUMPDEST PUSH1 0x40 MLOAD DUP1 SWAP2 SUB SWAP1 RETURN JUMPDEST PUSH2 0x3DC PUSH1 0x4 DUP1 CALLDATASIZE SUB DUP2 ADD SWAP1 PUSH2 0x3D7 SWAP2 SWAP1 PUSH2 0x2701 JUMP JUMPDEST PUSH2 0x903 JUMP JUMPDEST STOP JUMPDEST PUSH2 0x3F8 PUSH1 0x4 DUP1 CALLDATASIZE SUB DUP2 ADD SWAP1 PUSH2 0x3F3 SWAP2 SWAP1 PUSH2 0x25B7 JUMP JUMPDEST PUSH2 0x97E JUMP JUMPDEST STOP JUMPDEST PUSH2 0x414 PUSH1 0x4 DUP1 CALLDATASIZE SUB DUP2 ADD SWAP1 PUSH2 0x40F SWAP2 SWAP1 PUSH2 0x24A2 JUMP JUMPDEST PUSH2 0xA05 JUMP JUMPDEST STOP JUMPDEST PUSH2 0x430 PUSH1 0x4 DUP1 CALLDATASIZE SUB DUP2 ADD SWAP1 PUSH2 0x42B SWAP2 SWAP1 PUSH2 0x24A2 JUMP JUMPDEST PUSH2 0xB0C JUMP JUMPDEST STOP JUMPDEST PUSH2 0x44C PUSH1 0x4 DUP1 CALLDATASIZE SUB DUP2 ADD SWAP1 PUSH2 0x447 SWAP2 SWAP1 PUSH2 0x24A2 JUMP JUMPDEST PUSH2 0xC13 JUMP JUMPDEST PUSH1 0x40 MLOAD PUSH2 0x459 SWAP2 SWAP1 PUSH2 0x2606 JUMP JUMPDEST PUSH1 0x40 MLOAD DUP1 SWAP2 SUB SWAP1 RETURN JUMPDEST PUSH2 0x46A PUSH2 0xC5B JUMP JUMPDEST STOP JUMPDEST PUSH2 0x474 PUSH2 0xC6F JUMP JUMPDEST PUSH1 0x40 MLOAD PUSH2 0x481 SWAP2 SWAP1 PUSH2 0x2797 JUMP JUMPDEST PUSH1 0x40 MLOAD DUP1 SWAP2 SUB SWAP1 RETURN JUMPDEST PUSH2 0x492 PUSH2 0xC76 JUMP JUMPDEST PUSH1 0x40 MLOAD PUSH2 0x49F SWAP2 SWAP1 PUSH2 0x27C1 JUMP JUMPDEST PUSH1 0x40 MLOAD DUP1 SWAP2 SUB SWAP1 RETURN JUMPDEST PUSH2 0x4C2 PUSH1 0x4 DUP1 CALLDATASIZE SUB DUP2 ADD SWAP1 PUSH2 0x4BD SWAP2 SWAP1 PUSH2 0x2701 JUMP JUMPDEST PUSH2 0xCA0 JUMP JUMPDEST PUSH1 0x40 MLOAD PUSH2 0x4CF SWAP2 SWAP1 PUSH2 0x2429 JUMP JUMPDEST PUSH1 0x40 MLOAD DUP1 SWAP2 SUB SWAP1 RETURN JUMPDEST PUSH2 0x4E0 PUSH2 0xD0B JUMP JUMPDEST PUSH1 0x40 MLOAD PUSH2 0x4ED SWAP2 SWAP1 PUSH2 0x255F JUMP JUMPDEST PUSH1 0x40 MLOAD DUP1 SWAP2 SUB SWAP1 RETURN JUMPDEST PUSH2 0x510 PUSH1 0x4 DUP1 CALLDATASIZE SUB DUP2 ADD SWAP1 PUSH2 0x50B SWAP2 SWAP1 PUSH2 0x27DC JUMP JUMPDEST PUSH2 0xD9D JUMP JUMPDEST STOP JUMPDEST PUSH2 0x51A PUSH2 0xE22 JUMP JUMPDEST PUSH1 0x40 MLOAD PUSH2 0x527 SWAP2 SWAP1 PUSH2 0x26E6 JUMP JUMPDEST PUSH1 0x40 MLOAD DUP1 SWAP2 SUB SWAP1 RETURN JUMPDEST PUSH2 0x54A PUSH1 0x4 DUP1 CALLDATASIZE SUB DUP2 ADD SWAP1 PUSH2 0x545 SWAP2 SWAP1 PUSH2 0x24A2 JUMP JUMPDEST PUSH2 0xE29 JUMP JUMPDEST STOP JUMPDEST PUSH2 0x566 PUSH1 0x4 DUP1 CALLDATASIZE SUB DUP2 ADD SWAP1 PUSH2 0x561 SWAP2 SWAP1 PUSH2 0x25B7 JUMP JUMPDEST PUSH2 0xF6F JUMP JUMPDEST PUSH1 0x40 MLOAD PUSH2 0x573 SWAP2 SWAP1 PUSH2 0x2429 JUMP JUMPDEST PUSH1 0x40 MLOAD DUP1 SWAP2 SUB SWAP1 RETURN JUMPDEST PUSH2 0x596 PUSH1 0x4 DUP1 CALLDATASIZE SUB DUP2 ADD SWAP1 PUSH2 0x591 SWAP2 SWAP1 PUSH2 0x27DC JUMP JUMPDEST PUSH2 0xF92 JUMP JUMPDEST STOP JUMPDEST PUSH2 0x5B2 PUSH1 0x4 DUP1 CALLDATASIZE SUB DUP2 ADD SWAP1 PUSH2 0x5AD SWAP2 SWAP1 PUSH2 0x2701 JUMP JUMPDEST PUSH2 0x1017 JUMP JUMPDEST STOP JUMPDEST PUSH2 0x5BC PUSH2 0x1039 JUMP JUMPDEST PUSH1 0x40 MLOAD PUSH2 0x5C9 SWAP2 SWAP1 PUSH2 0x2606 JUMP JUMPDEST PUSH1 0x40 MLOAD DUP1 SWAP2 SUB SWAP1 RETURN JUMPDEST PUSH2 0x5EC PUSH1 0x4 DUP1 CALLDATASIZE SUB DUP2 ADD SWAP1 PUSH2 0x5E7 SWAP2 SWAP1 PUSH2 0x2809 JUMP JUMPDEST PUSH2 0x1048 JUMP JUMPDEST PUSH1 0x40 MLOAD PUSH2 0x5F9 SWAP2 SWAP1 PUSH2 0x2606 JUMP JUMPDEST PUSH1 0x40 MLOAD DUP1 SWAP2 SUB SWAP1 RETURN JUMPDEST PUSH2 0x60A PUSH2 0x10CF JUMP JUMPDEST PUSH1 0x40 MLOAD PUSH2 0x617 SWAP2 SWAP1 PUSH2 0x26E6 JUMP JUMPDEST PUSH1 0x40 MLOAD DUP1 SWAP2 SUB SWAP1 RETURN JUMPDEST PUSH2 0x63A PUSH1 0x4 DUP1 CALLDATASIZE SUB DUP2 ADD SWAP1 PUSH2 0x635 SWAP2 SWAP1 PUSH2 0x24A2 JUMP JUMPDEST PUSH2 0x10F3 JUMP JUMPDEST STOP JUMPDEST PUSH2 0x644 PUSH2 0x1239 JUMP JUMPDEST PUSH1 0x40 MLOAD PUSH2 0x651 SWAP2 SWAP1 PUSH2 0x2797 JUMP JUMPDEST PUSH1 0x40 MLOAD DUP1 SWAP2 SUB SWAP1 RETURN JUMPDEST PUSH2 0x662 PUSH2 0x1241 JUMP JUMPDEST PUSH1 0x40 MLOAD PUSH2 0x66F SWAP2 SWAP1 PUSH2 0x27C1 JUMP JUMPDEST PUSH1 0x40 MLOAD DUP1 SWAP2 SUB SWAP1 RETURN JUMPDEST PUSH2 0x692 PUSH1 0x4 DUP1 CALLDATASIZE SUB DUP2 ADD SWAP1 PUSH2 0x68D SWAP2 SWAP1 PUSH2 0x24A2 JUMP JUMPDEST PUSH2 0x1273 JUMP JUMPDEST STOP JUMPDEST PUSH1 0x0 PUSH32 0x7965DB0B00000000000000000000000000000000000000000000000000000000 PUSH28 0xFFFFFFFFFFFFFFFFFFFFFFFFFFFFFFFFFFFFFFFFFFFFFFFFFFFFFFFF NOT AND DUP3 PUSH28 0xFFFFFFFFFFFFFFFFFFFFFFFFFFFFFFFFFFFFFFFFFFFFFFFFFFFFFFFF NOT AND EQ DUP1 PUSH2 0x707 JUMPI POP PUSH2 0x706 DUP3 PUSH2 0x12F9 JUMP JUMPDEST JUMPDEST SWAP1 POP SWAP2 SWAP1 POP JUMP JUMPDEST PUSH2 0x716 PUSH2 0x1363 JUMP JUMPDEST PUSH2 0x71F DUP2 PUSH2 0x13EA JUMP JUMPDEST PUSH2 0x757 PUSH2 0x72A PUSH2 0x1241 JUMP JUMPDEST PUSH2 0x732 PUSH2 0x8AE JUMP JUMPDEST PUSH1 0xA PUSH2 0x73E SWAP2 SWAP1 PUSH2 0x29AB JUMP JUMPDEST PUSH3 0x30D40 PUSH4 0xFFFFFFFF AND PUSH2 0x752 SWAP2 SWAP1 PUSH2 0x29F6 JUMP JUMPDEST PUSH2 0x155E JUMP JUMPDEST POP JUMP JUMPDEST PUSH1 0x60 PUSH1 0x3 DUP1 SLOAD PUSH2 0x769 SWAP1 PUSH2 0x2A67 JUMP JUMPDEST DUP1 PUSH1 0x1F ADD PUSH1 0x20 DUP1 SWAP2 DIV MUL PUSH1 0x20 ADD PUSH1 0x40 MLOAD SWAP1 DUP2 ADD PUSH1 0x40 MSTORE DUP1 SWAP3 SWAP2 SWAP1 DUP2 DUP2 MSTORE PUSH1 0x20 ADD DUP3 DUP1 SLOAD PUSH2 0x795 SWAP1 PUSH2 0x2A67 JUMP JUMPDEST DUP1 ISZERO PUSH2 0x7E2 JUMPI DUP1 PUSH1 0x1F LT PUSH2 0x7B7 JUMPI PUSH2 0x100 DUP1 DUP4 SLOAD DIV MUL DUP4 MSTORE SWAP2 PUSH1 0x20 ADD SWAP2 PUSH2 0x7E2 JUMP JUMPDEST DUP3 ADD SWAP2 SWAP1 PUSH1 0x0 MSTORE PUSH1 0x20 PUSH1 0x0 KECCAK256 SWAP1 JUMPDEST DUP2 SLOAD DUP2 MSTORE SWAP1 PUSH1 0x1 ADD SWAP1 PUSH1 0x20 ADD DUP1 DUP4 GT PUSH2 0x7C5 JUMPI DUP3 SWAP1 SUB PUSH1 0x1F AND DUP3 ADD SWAP2 JUMPDEST POP POP POP POP POP SWAP1 POP SWAP1 JUMP JUMPDEST PUSH1 0x0 DUP1 PUSH2 0x7F7 PUSH2 0x15E0 JUMP JUMPDEST SWAP1 POP PUSH2 0x804 DUP2 DUP6 DUP6 PUSH2 0x15E8 JUMP JUMPDEST PUSH1 0x1 SWAP2 POP POP SWAP3 SWAP2 POP POP JUMP JUMPDEST PUSH1 0x0 PUSH1 0x2 SLOAD SWAP1 POP SWAP1 JUMP JUMPDEST PUSH1 0x0 DUP1 PUSH2 0x824 PUSH2 0x15E0 JUMP JUMPDEST SWAP1 POP PUSH2 0x831 DUP6 DUP3 DUP6 PUSH2 0x15FA JUMP JUMPDEST PUSH2 0x83C DUP6 DUP6 DUP6 PUSH2 0x168E JUMP JUMPDEST PUSH1 0x1 SWAP2 POP POP SWAP4 SWAP3 POP POP POP JUMP JUMPDEST PUSH1 0x0 PUSH1 0x6 PUSH1 0x0 DUP4 DUP2 MSTORE PUSH1 0x20 ADD SWAP1 DUP2 MSTORE PUSH1 0x20 ADD PUSH1 0x0 KECCAK256 PUSH1 0x1 ADD SLOAD SWAP1 POP SWAP2 SWAP1 POP JUMP JUMPDEST PUSH32 0xCC5864B50C006EFFFEC16FBCC758B1C2B9725F841F80DF83EA738C15E5B23BBC DUP2 JUMP JUMPDEST PUSH2 0x895 DUP3 PUSH2 0x848 JUMP JUMPDEST PUSH2 0x89E DUP2 PUSH2 0x1782 JUMP JUMPDEST PUSH2 0x8A8 DUP4 DUP4 PUSH2 0x1796 JUMP JUMPDEST POP POP POP POP JUMP JUMPDEST PUSH1 0x0 PUSH1 0x12 SWAP1 POP SWAP1 JUMP JUMPDEST PUSH32 0x5B31CC03ED6EBE148D19CF37EE86DC3428B3582D79A90304535505ACDA3F793 DUP2 JUMP JUMPDEST PUSH1 0x0 PUSH32 0x0 SWAP1 POP SWAP1 JUMP JUMPDEST PUSH2 0x90B PUSH2 0x15E0 JUMP JUMPDEST PUSH20 0xFFFFFFFFFFFFFFFFFFFFFFFFFFFFFFFFFFFFFFFF AND DUP2 PUSH20 0xFFFFFFFFFFFFFFFFFFFFFFFFFFFFFFFFFFFFFFFF AND EQ PUSH2 0x96F JUMPI PUSH1 0x40 MLOAD PUSH32 0x6697B23200000000000000000000000000000000000000000000000000000000 DUP2 MSTORE PUSH1 0x4 ADD PUSH1 0x40 MLOAD DUP1 SWAP2 SUB SWAP1 REVERT JUMPDEST PUSH2 0x979 DUP3 DUP3 PUSH2 0x1888 JUMP JUMPDEST POP POP POP JUMP JUMPDEST DUP1 PUSH2 0x9AB PUSH1 0x2 PUSH32 0xAFDAF88CCACEEDF25860D75CFFACF49572D01E9C3A1769017788D59DD8D968FF DUP4 PUSH2 0x197B JUMP JUMPDEST PUSH1 0x0 DUP3 GT PUSH2 0x9EE JUMPI PUSH1 0x40 MLOAD PUSH32 0x8C379A000000000000000000000000000000000000000000000000000000000 DUP2 MSTORE PUSH1 0x4 ADD PUSH2 0x9E5 SWAP1 PUSH2 0x2B0A JUMP JUMPDEST PUSH1 0x40 MLOAD DUP1 SWAP2 SUB SWAP1 REVERT JUMPDEST PUSH2 0xA00 PUSH2 0x9F9 PUSH2 0x1241 JUMP JUMPDEST DUP5 DUP5 PUSH2 0x168E JUMP JUMPDEST POP POP POP JUMP JUMPDEST PUSH2 0xA0D PUSH2 0x1363 JUMP JUMPDEST PUSH1 0x0 PUSH20 0xFFFFFFFFFFFFFFFFFFFFFFFFFFFFFFFFFFFFFFFF AND DUP2 PUSH20 0xFFFFFFFFFFFFFFFFFFFFFFFFFFFFFFFFFFFFFFFF AND SUB PUSH2 0xA7E JUMPI DUP1 PUSH1 0x40 MLOAD PUSH32 0xA5EF3A2600000000000000000000000000000000000000000000000000000000 DUP2 MSTORE PUSH1 0x4 ADD PUSH2 0xA75 SWAP2 SWAP1 PUSH2 0x27C1 JUMP JUMPDEST PUSH1 0x40 MLOAD DUP1 SWAP2 SUB SWAP1 REVERT JUMPDEST PUSH2 0xAA8 PUSH32 0xCC5864B50C006EFFFEC16FBCC758B1C2B9725F841F80DF83EA738C15E5B23BBC DUP3 PUSH2 0x88C JUMP JUMPDEST PUSH2 0xAD2 PUSH32 0x5B31CC03ED6EBE148D19CF37EE86DC3428B3582D79A90304535505ACDA3F793 DUP3 PUSH2 0x88C JUMP JUMPDEST PUSH32 0xE07A7C2A336560FB78652509E7062DB7D23C2042DD0394FDED8AB52D9C405542 DUP2 PUSH1 0x40 MLOAD PUSH2 0xB01 SWAP2 SWAP1 PUSH2 0x27C1 JUMP JUMPDEST PUSH1 0x40 MLOAD DUP1 SWAP2 SUB SWAP1 LOG1 POP JUMP JUMPDEST PUSH2 0xB14 PUSH2 0x1363 JUMP JUMPDEST PUSH1 0x0 PUSH20 0xFFFFFFFFFFFFFFFFFFFFFFFFFFFFFFFFFFFFFFFF AND DUP2 PUSH20 0xFFFFFFFFFFFFFFFFFFFFFFFFFFFFFFFFFFFFFFFF AND SUB PUSH2 0xB85 JUMPI DUP1 PUSH1 0x40 MLOAD PUSH32 0xA5EF3A2600000000000000000000000000000000000000000000000000000000 DUP2 MSTORE PUSH1 0x4 ADD PUSH2 0xB7C SWAP2 SWAP1 PUSH2 0x27C1 JUMP JUMPDEST PUSH1 0x40 MLOAD DUP1 SWAP2 SUB SWAP1 REVERT JUMPDEST PUSH2 0xBAF PUSH32 0xCC5864B50C006EFFFEC16FBCC758B1C2B9725F841F80DF83EA738C15E5B23BBC DUP3 PUSH2 0x1017 JUMP JUMPDEST PUSH2 0xBD9 PUSH32 0x5B31CC03ED6EBE148D19CF37EE86DC3428B3582D79A90304535505ACDA3F793 DUP3 PUSH2 0x1017 JUMP JUMPDEST PUSH32 0x185DED1D663797AC12729923AF2D761E9B57BFEEF5F753F9707196C10A557246 DUP2 PUSH1 0x40 MLOAD PUSH2 0xC08 SWAP2 SWAP1 PUSH2 0x27C1 JUMP JUMPDEST PUSH1 0x40 MLOAD DUP1 SWAP2 SUB SWAP1 LOG1 POP JUMP JUMPDEST PUSH1 0x0 DUP1 PUSH1 0x0 DUP4 PUSH20 0xFFFFFFFFFFFFFFFFFFFFFFFFFFFFFFFFFFFFFFFF AND PUSH20 0xFFFFFFFFFFFFFFFFFFFFFFFFFFFFFFFFFFFFFFFF AND DUP2 MSTORE PUSH1 0x20 ADD SWAP1 DUP2 MSTORE PUSH1 0x20 ADD PUSH1 0x0 KECCAK256 SLOAD SWAP1 POP SWAP2 SWAP1 POP JUMP JUMPDEST PUSH2 0xC63 PUSH2 0x1363 JUMP JUMPDEST PUSH2 0xC6D PUSH1 0x0 PUSH2 0x19F2 JUMP JUMPDEST JUMP JUMPDEST PUSH3 0x30D40 DUP2 JUMP JUMPDEST PUSH1 0x0 PUSH1 0x5 PUSH1 0x0 SWAP1 SLOAD SWAP1 PUSH2 0x100 EXP SWAP1 DIV PUSH20 0xFFFFFFFFFFFFFFFFFFFFFFFFFFFFFFFFFFFFFFFF AND SWAP1 POP SWAP1 JUMP JUMPDEST PUSH1 0x0 PUSH1 0x6 PUSH1 0x0 DUP5 DUP2 MSTORE PUSH1 0x20 ADD SWAP1 DUP2 MSTORE PUSH1 0x20 ADD PUSH1 0x0 KECCAK256 PUSH1 0x0 ADD PUSH1 0x0 DUP4 PUSH20 0xFFFFFFFFFFFFFFFFFFFFFFFFFFFFFFFFFFFFFFFF AND PUSH20 0xFFFFFFFFFFFFFFFFFFFFFFFFFFFFFFFFFFFFFFFF AND DUP2 MSTORE PUSH1 0x20 ADD SWAP1 DUP2 MSTORE PUSH1 0x20 ADD PUSH1 0x0 KECCAK256 PUSH1 0x0 SWAP1 SLOAD SWAP1 PUSH2 0x100 EXP SWAP1 DIV PUSH1 0xFF AND SWAP1 POP SWAP3 SWAP2 POP POP JUMP JUMPDEST PUSH1 0x60 PUSH1 0x4 DUP1 SLOAD PUSH2 0xD1A SWAP1 PUSH2 0x2A67 JUMP JUMPDEST DUP1 PUSH1 0x1F ADD PUSH1 0x20 DUP1 SWAP2 DIV MUL PUSH1 0x20 ADD PUSH1 0x40 MLOAD SWAP1 DUP2 ADD PUSH1 0x40 MSTORE DUP1 SWAP3 SWAP2 SWAP1 DUP2 DUP2 MSTORE PUSH1 0x20 ADD DUP3 DUP1 SLOAD PUSH2 0xD46 SWAP1 PUSH2 0x2A67 JUMP JUMPDEST DUP1 ISZERO PUSH2 0xD93 JUMPI DUP1 PUSH1 0x1F LT PUSH2 0xD68 JUMPI PUSH2 0x100 DUP1 DUP4 SLOAD DIV MUL DUP4 MSTORE SWAP2 PUSH1 0x20 ADD SWAP2 PUSH2 0xD93 JUMP JUMPDEST DUP3 ADD SWAP2 SWAP1 PUSH1 0x0 MSTORE PUSH1 0x20 PUSH1 0x0 KECCAK256 SWAP1 JUMPDEST DUP2 SLOAD DUP2 MSTORE SWAP1 PUSH1 0x1 ADD SWAP1 PUSH1 0x20 ADD DUP1 DUP4 GT PUSH2 0xD76 JUMPI DUP3 SWAP1 SUB PUSH1 0x1F AND DUP3 ADD SWAP2 JUMPDEST POP POP POP POP POP SWAP1 POP SWAP1 JUMP JUMPDEST DUP1 PUSH2 0xDCA PUSH1 0x1 PUSH32 0xAFDAF88CCACEEDF25860D75CFFACF49572D01E9C3A1769017788D59DD8D968FF DUP4 PUSH2 0x197B JUMP JUMPDEST PUSH1 0x0 DUP3 GT PUSH2 0xE0D JUMPI PUSH1 0x40 MLOAD PUSH32 0x8C379A000000000000000000000000000000000000000000000000000000000 DUP2 MSTORE PUSH1 0x4 ADD PUSH2 0xE04 SWAP1 PUSH2 0x2B0A JUMP JUMPDEST PUSH1 0x40 MLOAD DUP1 SWAP2 SUB SWAP1 REVERT JUMPDEST PUSH2 0xE1E PUSH2 0xE18 PUSH2 0x1241 JUMP JUMPDEST DUP4 PUSH2 0x1AB8 JUMP JUMPDEST POP POP JUMP JUMPDEST PUSH1 0x0 DUP1 SHL DUP2 JUMP JUMPDEST PUSH2 0xE52 PUSH32 0x5B31CC03ED6EBE148D19CF37EE86DC3428B3582D79A90304535505ACDA3F793 PUSH2 0x1B3A JUMP JUMPDEST PUSH2 0xE9A JUMPI PUSH2 0xE5E PUSH2 0x15E0 JUMP JUMPDEST PUSH1 0x40 MLOAD PUSH32 0x19A80A5B00000000000000000000000000000000000000000000000000000000 DUP2 MSTORE PUSH1 0x4 ADD PUSH2 0xE91 SWAP2 SWAP1 PUSH2 0x27C1 JUMP JUMPDEST PUSH1 0x40 MLOAD DUP1 SWAP2 SUB SWAP1 REVERT JUMPDEST PUSH1 0x0 PUSH20 0xFFFFFFFFFFFFFFFFFFFFFFFFFFFFFFFFFFFFFFFF AND DUP2 PUSH20 0xFFFFFFFFFFFFFFFFFFFFFFFFFFFFFFFFFFFFFFFF AND SUB PUSH2 0xF0B JUMPI DUP1 PUSH1 0x40 MLOAD PUSH32 0x51BAE9B400000000000000000000000000000000000000000000000000000000 DUP2 MSTORE PUSH1 0x4 ADD PUSH2 0xF02 SWAP2 SWAP1 PUSH2 0x27C1 JUMP JUMPDEST PUSH1 0x40 MLOAD DUP1 SWAP2 SUB SWAP1 REVERT JUMPDEST PUSH2 0xF35 PUSH32 0xAFDAF88CCACEEDF25860D75CFFACF49572D01E9C3A1769017788D59DD8D968FF DUP3 PUSH2 0x88C JUMP JUMPDEST PUSH32 0xEADD97713222C6E2B7C5E55FFA35B97241DA466F873863C5C5EDFA089F1234ED DUP2 PUSH1 0x40 MLOAD PUSH2 0xF64 SWAP2 SWAP1 PUSH2 0x27C1 JUMP JUMPDEST PUSH1 0x40 MLOAD DUP1 SWAP2 SUB SWAP1 LOG1 POP JUMP JUMPDEST PUSH1 0x0 DUP1 PUSH2 0xF7A PUSH2 0x15E0 JUMP JUMPDEST SWAP1 POP PUSH2 0xF87 DUP2 DUP6 DUP6 PUSH2 0x168E JUMP JUMPDEST PUSH1 0x1 SWAP2 POP POP SWAP3 SWAP2 POP POP JUMP JUMPDEST DUP1 PUSH2 0xFBF PUSH1 0x0 PUSH32 0xCC5864B50C006EFFFEC16FBCC758B1C2B9725F841F80DF83EA738C15E5B23BBC DUP4 PUSH2 0x197B JUMP JUMPDEST PUSH1 0x0 DUP3 GT PUSH2 0x1002 JUMPI PUSH1 0x40 MLOAD PUSH32 0x8C379A000000000000000000000000000000000000000000000000000000000 DUP2 MSTORE PUSH1 0x4 ADD PUSH2 0xFF9 SWAP1 PUSH2 0x2B0A JUMP JUMPDEST PUSH1 0x40 MLOAD DUP1 SWAP2 SUB SWAP1 REVERT JUMPDEST PUSH2 0x1013 PUSH2 0x100D PUSH2 0x1241 JUMP JUMPDEST DUP4 PUSH2 0x155E JUMP JUMPDEST POP POP JUMP JUMPDEST PUSH2 0x1020 DUP3 PUSH2 0x848 JUMP JUMPDEST PUSH2 0x1029 DUP2 PUSH2 0x1782 JUMP JUMPDEST PUSH2 0x1033 DUP4 DUP4 PUSH2 0x1888 JUMP JUMPDEST POP POP POP POP JUMP JUMPDEST PUSH1 0x0 PUSH2 0x1043 PUSH2 0x8DB JUMP JUMPDEST SWAP1 POP SWAP1 JUMP JUMPDEST PUSH1 0x0 PUSH1 0x1 PUSH1 0x0 DUP5 PUSH20 0xFFFFFFFFFFFFFFFFFFFFFFFFFFFFFFFFFFFFFFFF AND PUSH20 0xFFFFFFFFFFFFFFFFFFFFFFFFFFFFFFFFFFFFFFFF AND DUP2 MSTORE PUSH1 0x20 ADD SWAP1 DUP2 MSTORE PUSH1 0x20 ADD PUSH1 0x0 KECCAK256 PUSH1 0x0 DUP4 PUSH20 0xFFFFFFFFFFFFFFFFFFFFFFFFFFFFFFFFFFFFFFFF AND PUSH20 0xFFFFFFFFFFFFFFFFFFFFFFFFFFFFFFFFFFFFFFFF AND DUP2 MSTORE PUSH1 0x20 ADD SWAP1 DUP2 MSTORE PUSH1 0x20 ADD PUSH1 0x0 KECCAK256 SLOAD SWAP1 POP SWAP3 SWAP2 POP POP JUMP JUMPDEST PUSH32 0xAFDAF88CCACEEDF25860D75CFFACF49572D01E9C3A1769017788D59DD8D968FF DUP2 JUMP JUMPDEST PUSH2 0x111C PUSH32 0x5B31CC03ED6EBE148D19CF37EE86DC3428B3582D79A90304535505ACDA3F793 PUSH2 0x1B3A JUMP JUMPDEST PUSH2 0x1164 JUMPI PUSH2 0x1128 PUSH2 0x15E0 JUMP JUMPDEST PUSH1 0x40 MLOAD PUSH32 0x19A80A5B00000000000000000000000000000000000000000000000000000000 DUP2 MSTORE PUSH1 0x4 ADD PUSH2 0x115B SWAP2 SWAP1 PUSH2 0x27C1 JUMP JUMPDEST PUSH1 0x40 MLOAD DUP1 SWAP2 SUB SWAP1 REVERT JUMPDEST PUSH1 0x0 PUSH20 0xFFFFFFFFFFFFFFFFFFFFFFFFFFFFFFFFFFFFFFFF AND DUP2 PUSH20 0xFFFFFFFFFFFFFFFFFFFFFFFFFFFFFFFFFFFFFFFF AND SUB PUSH2 0x11D5 JUMPI DUP1 PUSH1 0x40 MLOAD PUSH32 0x51BAE9B400000000000000000000000000000000000000000000000000000000 DUP2 MSTORE PUSH1 0x4 ADD PUSH2 0x11CC SWAP2 SWAP1 PUSH2 0x27C1 JUMP JUMPDEST PUSH1 0x40 MLOAD DUP1 SWAP2 SUB SWAP1 REVERT JUMPDEST PUSH2 0x11FF PUSH32 0xAFDAF88CCACEEDF25860D75CFFACF49572D01E9C3A1769017788D59DD8D968FF DUP3 PUSH2 0x1017 JUMP JUMPDEST PUSH32 0x542895D04C6A314FC8BCC6BC627B948E5CE0B964DB8948FE076BE9922A4DC6E8 DUP2 PUSH1 0x40 MLOAD PUSH2 0x122E SWAP2 SWAP1 PUSH2 0x27C1 JUMP JUMPDEST PUSH1 0x40 MLOAD DUP1 SWAP2 SUB SWAP1 LOG1 POP JUMP JUMPDEST PUSH4 0x3B9ACA00 DUP2 JUMP JUMPDEST PUSH1 0x0 PUSH2 0x124B PUSH2 0x1B54 JUMP JUMPDEST PUSH1 0x7 PUSH1 0x0 SWAP1 SLOAD SWAP1 PUSH2 0x100 EXP SWAP1 DIV PUSH20 0xFFFFFFFFFFFFFFFFFFFFFFFFFFFFFFFFFFFFFFFF AND SWAP1 POP SWAP1 JUMP JUMPDEST PUSH2 0x127B PUSH2 0x1363 JUMP JUMPDEST PUSH1 0x0 PUSH20 0xFFFFFFFFFFFFFFFFFFFFFFFFFFFFFFFFFFFFFFFF AND DUP2 PUSH20 0xFFFFFFFFFFFFFFFFFFFFFFFFFFFFFFFFFFFFFFFF AND SUB PUSH2 0x12ED JUMPI PUSH1 0x0 PUSH1 0x40 MLOAD PUSH32 0x1E4FBDF700000000000000000000000000000000000000000000000000000000 DUP2 MSTORE PUSH1 0x4 ADD PUSH2 0x12E4 SWAP2 SWAP1 PUSH2 0x27C1 JUMP JUMPDEST PUSH1 0x40 MLOAD DUP1 SWAP2 SUB SWAP1 REVERT JUMPDEST PUSH2 0x12F6 DUP2 PUSH2 0x19F2 JUMP JUMPDEST POP JUMP JUMPDEST PUSH1 0x0 PUSH32 0x1FFC9A700000000000000000000000000000000000000000000000000000000 PUSH28 0xFFFFFFFFFFFFFFFFFFFFFFFFFFFFFFFFFFFFFFFFFFFFFFFFFFFFFFFF NOT AND DUP3 PUSH28 0xFFFFFFFFFFFFFFFFFFFFFFFFFFFFFFFFFFFFFFFFFFFFFFFFFFFFFFFF NOT AND EQ SWAP1 POP SWAP2 SWAP1 POP JUMP JUMPDEST PUSH2 0x136B PUSH2 0x15E0 JUMP JUMPDEST PUSH20 0xFFFFFFFFFFFFFFFFFFFFFFFFFFFFFFFFFFFFFFFF AND PUSH2 0x1389 PUSH2 0xC76 JUMP JUMPDEST PUSH20 0xFFFFFFFFFFFFFFFFFFFFFFFFFFFFFFFFFFFFFFFF AND EQ PUSH2 0x13E8 JUMPI PUSH2 0x13AC PUSH2 0x15E0 JUMP JUMPDEST PUSH1 0x40 MLOAD PUSH32 0x118CDAA700000000000000000000000000000000000000000000000000000000 DUP2 MSTORE PUSH1 0x4 ADD PUSH2 0x13DF SWAP2 SWAP1 PUSH2 0x27C1 JUMP JUMPDEST PUSH1 0x40 MLOAD DUP1 SWAP2 SUB SWAP1 REVERT JUMPDEST JUMP JUMPDEST PUSH2 0x13F2 PUSH2 0x1363 JUMP JUMPDEST PUSH1 0x0 PUSH20 0xFFFFFFFFFFFFFFFFFFFFFFFFFFFFFFFFFFFFFFFF AND DUP2 PUSH20 0xFFFFFFFFFFFFFFFFFFFFFFFFFFFFFFFFFFFFFFFF AND SUB PUSH2 0x1463 JUMPI DUP1 PUSH1 0x40 MLOAD PUSH32 0x2256D31C00000000000000000000000000000000000000000000000000000000 DUP2 MSTORE PUSH1 0x4 ADD PUSH2 0x145A SWAP2 SWAP1 PUSH2 0x27C1 JUMP JUMPDEST PUSH1 0x40 MLOAD DUP1 SWAP2 SUB SWAP1 REVERT JUMPDEST PUSH1 0x0 PUSH20 0xFFFFFFFFFFFFFFFFFFFFFFFFFFFFFFFFFFFFFFFF AND PUSH1 0x7 PUSH1 0x0 SWAP1 SLOAD SWAP1 PUSH2 0x100 EXP SWAP1 DIV PUSH20 0xFFFFFFFFFFFFFFFFFFFFFFFFFFFFFFFFFFFFFFFF AND PUSH20 0xFFFFFFFFFFFFFFFFFFFFFFFFFFFFFFFFFFFFFFFF AND EQ PUSH2 0x151A JUMPI PUSH1 0x7 PUSH1 0x0 SWAP1 SLOAD SWAP1 PUSH2 0x100 EXP SWAP1 DIV PUSH20 0xFFFFFFFFFFFFFFFFFFFFFFFFFFFFFFFFFFFFFFFF AND DUP2 PUSH1 0x40 MLOAD PUSH32 0x89E662F300000000000000000000000000000000000000000000000000000000 DUP2 MSTORE PUSH1 0x4 ADD PUSH2 0x1511 SWAP3 SWAP2 SWAP1 PUSH2 0x2B2A JUMP JUMPDEST PUSH1 0x40 MLOAD DUP1 SWAP2 SUB SWAP1 REVERT JUMPDEST DUP1 PUSH1 0x7 PUSH1 0x0 PUSH2 0x100 EXP DUP2 SLOAD DUP2 PUSH20 0xFFFFFFFFFFFFFFFFFFFFFFFFFFFFFFFFFFFFFFFF MUL NOT AND SWAP1 DUP4 PUSH20 0xFFFFFFFFFFFFFFFFFFFFFFFFFFFFFFFFFFFFFFFF AND MUL OR SWAP1 SSTORE POP POP JUMP JUMPDEST PUSH1 0x0 PUSH20 0xFFFFFFFFFFFFFFFFFFFFFFFFFFFFFFFFFFFFFFFF AND DUP3 PUSH20 0xFFFFFFFFFFFFFFFFFFFFFFFFFFFFFFFFFFFFFFFF AND SUB PUSH2 0x15D0 JUMPI PUSH1 0x0 PUSH1 0x40 MLOAD PUSH32 0xEC442F0500000000000000000000000000000000000000000000000000000000 DUP2 MSTORE PUSH1 0x4 ADD PUSH2 0x15C7 SWAP2 SWAP1 PUSH2 0x27C1 JUMP JUMPDEST PUSH1 0x40 MLOAD DUP1 SWAP2 SUB SWAP1 REVERT JUMPDEST PUSH2 0x15DC PUSH1 0x0 DUP4 DUP4 PUSH2 0x1BDE JUMP JUMPDEST POP POP JUMP JUMPDEST PUSH1 0x0 CALLER SWAP1 POP SWAP1 JUMP JUMPDEST PUSH2 0x15F5 DUP4 DUP4 DUP4 PUSH1 0x1 PUSH2 0x1C84 JUMP JUMPDEST POP POP POP JUMP JUMPDEST PUSH1 0x0 PUSH2 0x1606 DUP5 DUP5 PUSH2 0x1048 JUMP JUMPDEST SWAP1 POP PUSH32 0xFFFFFFFFFFFFFFFFFFFFFFFFFFFFFFFFFFFFFFFFFFFFFFFFFFFFFFFFFFFFFFFF DUP2 EQ PUSH2 0x1688 JUMPI DUP2 DUP2 LT ISZERO PUSH2 0x1678 JUMPI DUP3 DUP2 DUP4 PUSH1 0x40 MLOAD PUSH32 0xFB8F41B200000000000000000000000000000000000000000000000000000000 DUP2 MSTORE PUSH1 0x4 ADD PUSH2 0x166F SWAP4 SWAP3 SWAP2 SWAP1 PUSH2 0x2B53 JUMP JUMPDEST PUSH1 0x40 MLOAD DUP1 SWAP2 SUB SWAP1 REVERT JUMPDEST PUSH2 0x1687 DUP5 DUP5 DUP5 DUP5 SUB PUSH1 0x0 PUSH2 0x1C84 JUMP JUMPDEST JUMPDEST POP POP POP POP JUMP JUMPDEST PUSH1 0x0 PUSH20 0xFFFFFFFFFFFFFFFFFFFFFFFFFFFFFFFFFFFFFFFF AND DUP4 PUSH20 0xFFFFFFFFFFFFFFFFFFFFFFFFFFFFFFFFFFFFFFFF AND SUB PUSH2 0x1700 JUMPI PUSH1 0x0 PUSH1 0x40 MLOAD PUSH32 0x96C6FD1E00000000000000000000000000000000000000000000000000000000 DUP2 MSTORE PUSH1 0x4 ADD PUSH2 0x16F7 SWAP2 SWAP1 PUSH2 0x27C1 JUMP JUMPDEST PUSH1 0x40 MLOAD DUP1 SWAP2 SUB SWAP1 REVERT JUMPDEST PUSH1 0x0 PUSH20 0xFFFFFFFFFFFFFFFFFFFFFFFFFFFFFFFFFFFFFFFF AND DUP3 PUSH20 0xFFFFFFFFFFFFFFFFFFFFFFFFFFFFFFFFFFFFFFFF AND SUB PUSH2 0x1772 JUMPI PUSH1 0x0 PUSH1 0x40 MLOAD PUSH32 0xEC442F0500000000000000000000000000000000000000000000000000000000 DUP2 MSTORE PUSH1 0x4 ADD PUSH2 0x1769 SWAP2 SWAP1 PUSH2 0x27C1 JUMP JUMPDEST PUSH1 0x40 MLOAD DUP1 SWAP2 SUB SWAP1 REVERT JUMPDEST PUSH2 0x177D DUP4 DUP4 DUP4 PUSH2 0x1BDE JUMP JUMPDEST POP POP POP JUMP JUMPDEST PUSH2 0x1793 DUP2 PUSH2 0x178E PUSH2 0x15E0 JUMP JUMPDEST PUSH2 0x1E5B JUMP JUMPDEST POP JUMP JUMPDEST PUSH1 0x0 PUSH2 0x17A2 DUP4 DUP4 PUSH2 0xCA0 JUMP JUMPDEST PUSH2 0x187D JUMPI PUSH1 0x1 PUSH1 0x6 PUSH1 0x0 DUP6 DUP2 MSTORE PUSH1 0x20 ADD SWAP1 DUP2 MSTORE PUSH1 0x20 ADD PUSH1 0x0 KECCAK256 PUSH1 0x0 ADD PUSH1 0x0 DUP5 PUSH20 0xFFFFFFFFFFFFFFFFFFFFFFFFFFFFFFFFFFFFFFFF AND PUSH20 0xFFFFFFFFFFFFFFFFFFFFFFFFFFFFFFFFFFFFFFFF AND DUP2 MSTORE PUSH1 0x20 ADD SWAP1 DUP2 MSTORE PUSH1 0x20 ADD PUSH1 0x0 KECCAK256 PUSH1 0x0 PUSH2 0x100 EXP DUP2 SLOAD DUP2 PUSH1 0xFF MUL NOT AND SWAP1 DUP4 ISZERO ISZERO MUL OR SWAP1 SSTORE POP PUSH2 0x181A PUSH2 0x15E0 JUMP JUMPDEST PUSH20 0xFFFFFFFFFFFFFFFFFFFFFFFFFFFFFFFFFFFFFFFF AND DUP3 PUSH20 0xFFFFFFFFFFFFFFFFFFFFFFFFFFFFFFFFFFFFFFFF AND DUP5 PUSH32 0x2F8788117E7EFF1D82E926EC794901D17C78024A50270940304540A733656F0D PUSH1 0x40 MLOAD PUSH1 0x40 MLOAD DUP1 SWAP2 SUB SWAP1 LOG4 PUSH1 0x1 SWAP1 POP PUSH2 0x1882 JUMP JUMPDEST PUSH1 0x0 SWAP1 POP JUMPDEST SWAP3 SWAP2 POP POP JUMP JUMPDEST PUSH1 0x0 PUSH2 0x1894 DUP4 DUP4 PUSH2 0xCA0 JUMP JUMPDEST ISZERO PUSH2 0x1970 JUMPI PUSH1 0x0 PUSH1 0x6 PUSH1 0x0 DUP6 DUP2 MSTORE PUSH1 0x20 ADD SWAP1 DUP2 MSTORE PUSH1 0x20 ADD PUSH1 0x0 KECCAK256 PUSH1 0x0 ADD PUSH1 0x0 DUP5 PUSH20 0xFFFFFFFFFFFFFFFFFFFFFFFFFFFFFFFFFFFFFFFF AND PUSH20 0xFFFFFFFFFFFFFFFFFFFFFFFFFFFFFFFFFFFFFFFF AND DUP2 MSTORE PUSH1 0x20 ADD SWAP1 DUP2 MSTORE PUSH1 0x20 ADD PUSH1 0x0 KECCAK256 PUSH1 0x0 PUSH2 0x100 EXP DUP2 SLOAD DUP2 PUSH1 0xFF MUL NOT AND SWAP1 DUP4 ISZERO ISZERO MUL OR SWAP1 SSTORE POP PUSH2 0x190D PUSH2 0x15E0 JUMP JUMPDEST PUSH20 0xFFFFFFFFFFFFFFFFFFFFFFFFFFFFFFFFFFFFFFFF AND DUP3 PUSH20 0xFFFFFFFFFFFFFFFFFFFFFFFFFFFFFFFFFFFFFFFF AND DUP5 PUSH32 0xF6391F5C32D9C69D2A47EA670B442974B53935D1EDC7FD64EB21E047A839171B PUSH1 0x40 MLOAD PUSH1 0x40 MLOAD DUP1 SWAP2 SUB SWAP1 LOG4 PUSH1 0x1 SWAP1 POP PUSH2 0x1975 JUMP JUMPDEST PUSH1 0x0 SWAP1 POP JUMPDEST SWAP3 SWAP2 POP POP JUMP JUMPDEST PUSH2 0x1983 PUSH2 0x1B54 JUMP JUMPDEST PUSH2 0x198C DUP2 PUSH2 0x1EAC JUMP JUMPDEST PUSH2 0x1995 DUP3 PUSH2 0x1EFD JUMP JUMPDEST PUSH2 0x19E3 JUMPI PUSH2 0x19A1 PUSH2 0x15E0 JUMP JUMPDEST DUP4 DUP4 DUP4 PUSH1 0x40 MLOAD PUSH32 0x3F4803100000000000000000000000000000000000000000000000000000000 DUP2 MSTORE PUSH1 0x4 ADD PUSH2 0x19DA SWAP5 SWAP4 SWAP3 SWAP2 SWAP1 PUSH2 0x2C01 JUMP JUMPDEST PUSH1 0x40 MLOAD DUP1 SWAP2 SUB SWAP1 REVERT JUMPDEST PUSH2 0x19ED DUP4 DUP3 PUSH2 0x1FE4 JUMP JUMPDEST POP POP POP JUMP JUMPDEST PUSH1 0x0 PUSH1 0x5 PUSH1 0x0 SWAP1 SLOAD SWAP1 PUSH2 0x100 EXP SWAP1 DIV PUSH20 0xFFFFFFFFFFFFFFFFFFFFFFFFFFFFFFFFFFFFFFFF AND SWAP1 POP DUP2 PUSH1 0x5 PUSH1 0x0 PUSH2 0x100 EXP DUP2 SLOAD DUP2 PUSH20 0xFFFFFFFFFFFFFFFFFFFFFFFFFFFFFFFFFFFFFFFF MUL NOT AND SWAP1 DUP4 PUSH20 0xFFFFFFFFFFFFFFFFFFFFFFFFFFFFFFFFFFFFFFFF AND MUL OR SWAP1 SSTORE POP DUP2 PUSH20 0xFFFFFFFFFFFFFFFFFFFFFFFFFFFFFFFFFFFFFFFF AND DUP2 PUSH20 0xFFFFFFFFFFFFFFFFFFFFFFFFFFFFFFFFFFFFFFFF AND PUSH32 0x8BE0079C531659141344CD1FD0A4F28419497F9722A3DAAFE3B4186F6B6457E0 PUSH1 0x40 MLOAD PUSH1 0x40 MLOAD DUP1 SWAP2 SUB SWAP1 LOG3 POP POP JUMP JUMPDEST PUSH1 0x0 PUSH20 0xFFFFFFFFFFFFFFFFFFFFFFFFFFFFFFFFFFFFFFFF AND DUP3 PUSH20 0xFFFFFFFFFFFFFFFFFFFFFFFFFFFFFFFFFFFFFFFF AND SUB PUSH2 0x1B2A JUMPI PUSH1 0x0 PUSH1 0x40 MLOAD PUSH32 0x96C6FD1E00000000000000000000000000000000000000000000000000000000 DUP2 MSTORE PUSH1 0x4 ADD PUSH2 0x1B21 SWAP2 SWAP1 PUSH2 0x27C1 JUMP JUMPDEST PUSH1 0x40 MLOAD DUP1 SWAP2 SUB SWAP1 REVERT JUMPDEST PUSH2 0x1B36 DUP3 PUSH1 0x0 DUP4 PUSH2 0x1BDE JUMP JUMPDEST POP POP JUMP JUMPDEST PUSH1 0x0 PUSH2 0x1B4D DUP3 PUSH2 0x1B48 PUSH2 0x15E0 JUMP JUMPDEST PUSH2 0xCA0 JUMP JUMPDEST SWAP1 POP SWAP2 SWAP1 POP JUMP JUMPDEST PUSH1 0x0 PUSH20 0xFFFFFFFFFFFFFFFFFFFFFFFFFFFFFFFFFFFFFFFF AND PUSH1 0x7 PUSH1 0x0 SWAP1 SLOAD SWAP1 PUSH2 0x100 EXP SWAP1 DIV PUSH20 0xFFFFFFFFFFFFFFFFFFFFFFFFFFFFFFFFFFFFFFFF AND PUSH20 0xFFFFFFFFFFFFFFFFFFFFFFFFFFFFFFFFFFFFFFFF AND SUB PUSH2 0x1BDC JUMPI PUSH1 0x40 MLOAD PUSH32 0xD669D2300000000000000000000000000000000000000000000000000000000 DUP2 MSTORE PUSH1 0x4 ADD PUSH1 0x40 MLOAD DUP1 SWAP2 SUB SWAP1 REVERT JUMPDEST JUMP JUMPDEST PUSH2 0x1BE9 DUP4 DUP4 DUP4 PUSH2 0x20A7 JUMP JUMPDEST PUSH1 0x0 PUSH20 0xFFFFFFFFFFFFFFFFFFFFFFFFFFFFFFFFFFFFFFFF AND DUP4 PUSH20 0xFFFFFFFFFFFFFFFFFFFFFFFFFFFFFFFFFFFFFFFF AND SUB PUSH2 0x1C7F JUMPI PUSH1 0x0 PUSH2 0x1C27 PUSH2 0x8DB JUMP JUMPDEST SWAP1 POP PUSH1 0x0 PUSH2 0x1C33 PUSH2 0x80F JUMP JUMPDEST SWAP1 POP DUP2 DUP2 GT ISZERO PUSH2 0x1C7C JUMPI DUP1 DUP3 PUSH1 0x40 MLOAD PUSH32 0x9E79F85400000000000000000000000000000000000000000000000000000000 DUP2 MSTORE PUSH1 0x4 ADD PUSH2 0x1C73 SWAP3 SWAP2 SWAP1 PUSH2 0x2C46 JUMP JUMPDEST PUSH1 0x40 MLOAD DUP1 SWAP2 SUB SWAP1 REVERT JUMPDEST POP POP JUMPDEST POP POP POP JUMP JUMPDEST PUSH1 0x0 PUSH20 0xFFFFFFFFFFFFFFFFFFFFFFFFFFFFFFFFFFFFFFFF AND DUP5 PUSH20 0xFFFFFFFFFFFFFFFFFFFFFFFFFFFFFFFFFFFFFFFF AND SUB PUSH2 0x1CF6 JUMPI PUSH1 0x0 PUSH1 0x40 MLOAD PUSH32 0xE602DF0500000000000000000000000000000000000000000000000000000000 DUP2 MSTORE PUSH1 0x4 ADD PUSH2 0x1CED SWAP2 SWAP1 PUSH2 0x27C1 JUMP JUMPDEST PUSH1 0x40 MLOAD DUP1 SWAP2 SUB SWAP1 REVERT JUMPDEST PUSH1 0x0 PUSH20 0xFFFFFFFFFFFFFFFFFFFFFFFFFFFFFFFFFFFFFFFF AND DUP4 PUSH20 0xFFFFFFFFFFFFFFFFFFFFFFFFFFFFFFFFFFFFFFFF AND SUB PUSH2 0x1D68 JUMPI PUSH1 0x0 PUSH1 0x40 MLOAD PUSH32 0x94280D6200000000000000000000000000000000000000000000000000000000 DUP2 MSTORE PUSH1 0x4 ADD PUSH2 0x1D5F SWAP2 SWAP1 PUSH2 0x27C1 JUMP JUMPDEST PUSH1 0x40 MLOAD DUP1 SWAP2 SUB SWAP1 REVERT JUMPDEST DUP2 PUSH1 0x1 PUSH1 0x0 DUP7 PUSH20 0xFFFFFFFFFFFFFFFFFFFFFFFFFFFFFFFFFFFFFFFF AND PUSH20 0xFFFFFFFFFFFFFFFFFFFFFFFFFFFFFFFFFFFFFFFF AND DUP2 MSTORE PUSH1 0x20 ADD SWAP1 DUP2 MSTORE PUSH1 0x20 ADD PUSH1 0x0 KECCAK256 PUSH1 0x0 DUP6 PUSH20 0xFFFFFFFFFFFFFFFFFFFFFFFFFFFFFFFFFFFFFFFF AND PUSH20 0xFFFFFFFFFFFFFFFFFFFFFFFFFFFFFFFFFFFFFFFF AND DUP2 MSTORE PUSH1 0x20 ADD SWAP1 DUP2 MSTORE PUSH1 0x20 ADD PUSH1 0x0 KECCAK256 DUP2 SWAP1 SSTORE POP DUP1 ISZERO PUSH2 0x1E55 JUMPI DUP3 PUSH20 0xFFFFFFFFFFFFFFFFFFFFFFFFFFFFFFFFFFFFFFFF AND DUP5 PUSH20 0xFFFFFFFFFFFFFFFFFFFFFFFFFFFFFFFFFFFFFFFF AND PUSH32 0x8C5BE1E5EBEC7D5BD14F71427D1E84F3DD0314C0F7B2291E5B200AC8C7C3B925 DUP5 PUSH1 0x40 MLOAD PUSH2 0x1E4C SWAP2 SWAP1 PUSH2 0x2606 JUMP JUMPDEST PUSH1 0x40 MLOAD DUP1 SWAP2 SUB SWAP1 LOG3 JUMPDEST POP POP POP POP JUMP JUMPDEST PUSH2 0x1E65 DUP3 DUP3 PUSH2 0xCA0 JUMP JUMPDEST PUSH2 0x1EA8 JUMPI DUP1 DUP3 PUSH1 0x40 MLOAD PUSH32 0xE2517D3F00000000000000000000000000000000000000000000000000000000 DUP2 MSTORE PUSH1 0x4 ADD PUSH2 0x1E9F SWAP3 SWAP2 SWAP1 PUSH2 0x2C6F JUMP JUMPDEST PUSH1 0x40 MLOAD DUP1 SWAP2 SUB SWAP1 REVERT JUMPDEST POP POP JUMP JUMPDEST PUSH1 0x0 DUP2 SUB PUSH2 0x1EFA JUMPI PUSH2 0x1EBC PUSH2 0x15E0 JUMP JUMPDEST DUP2 PUSH1 0x40 MLOAD PUSH32 0x7993C45300000000000000000000000000000000000000000000000000000000 DUP2 MSTORE PUSH1 0x4 ADD PUSH2 0x1EF1 SWAP3 SWAP2 SWAP1 PUSH2 0x2C98 JUMP JUMPDEST PUSH1 0x40 MLOAD DUP1 SWAP2 SUB SWAP1 REVERT JUMPDEST POP JUMP JUMPDEST PUSH1 0x0 DUP1 PUSH2 0x1F08 PUSH2 0x22CC JUMP JUMPDEST SWAP1 POP PUSH1 0x0 PUSH32 0xCC5864B50C006EFFFEC16FBCC758B1C2B9725F841F80DF83EA738C15E5B23BBC DUP5 EQ PUSH2 0x1FB4 JUMPI PUSH32 0xAFDAF88CCACEEDF25860D75CFFACF49572D01E9C3A1769017788D59DD8D968FF DUP5 EQ PUSH2 0x1F61 JUMPI PUSH1 0x0 PUSH2 0x1FAF JUMP JUMPDEST PUSH32 0xCC5864B50C006EFFFEC16FBCC758B1C2B9725F841F80DF83EA738C15E5B23BBC DUP3 EQ DUP1 PUSH2 0x1FAE JUMPI POP PUSH32 0xAFDAF88CCACEEDF25860D75CFFACF49572D01E9C3A1769017788D59DD8D968FF DUP3 EQ JUMPDEST JUMPDEST PUSH2 0x1FD8 JUMP JUMPDEST PUSH32 0xCC5864B50C006EFFFEC16FBCC758B1C2B9725F841F80DF83EA738C15E5B23BBC DUP3 EQ JUMPDEST SWAP1 POP DUP1 SWAP3 POP POP POP SWAP2 SWAP1 POP JUMP JUMPDEST PUSH1 0x0 PUSH2 0x1FEE PUSH2 0x22CC JUMP JUMPDEST SWAP1 POP PUSH1 0x0 PUSH1 0x8 PUSH1 0x0 DUP4 DUP2 MSTORE PUSH1 0x20 ADD SWAP1 DUP2 MSTORE PUSH1 0x20 ADD PUSH1 0x0 KECCAK256 PUSH1 0x0 ADD PUSH1 0x0 DUP6 PUSH1 0x2 DUP2 GT ISZERO PUSH2 0x201D JUMPI PUSH2 0x201C PUSH2 0x2B8A JUMP JUMPDEST JUMPDEST PUSH1 0x2 DUP2 GT ISZERO PUSH2 0x202F JUMPI PUSH2 0x202E PUSH2 0x2B8A JUMP JUMPDEST JUMPDEST DUP2 MSTORE PUSH1 0x20 ADD SWAP1 DUP2 MSTORE PUSH1 0x20 ADD PUSH1 0x0 KECCAK256 SLOAD SWAP1 POP PUSH1 0x0 DUP2 EQ ISZERO DUP1 ISZERO PUSH2 0x2050 JUMPI POP DUP1 DUP4 GT JUMPDEST ISZERO PUSH2 0x20A1 JUMPI PUSH2 0x205D PUSH2 0x15E0 JUMP JUMPDEST DUP3 DUP5 DUP7 DUP5 PUSH1 0x40 MLOAD PUSH32 0x973E0D9700000000000000000000000000000000000000000000000000000000 DUP2 MSTORE PUSH1 0x4 ADD PUSH2 0x2098 SWAP6 SWAP5 SWAP4 SWAP3 SWAP2 SWAP1 PUSH2 0x2CC1 JUMP JUMPDEST PUSH1 0x40 MLOAD DUP1 SWAP2 SUB SWAP1 REVERT JUMPDEST POP POP POP POP JUMP JUMPDEST PUSH1 0x0 PUSH20 0xFFFFFFFFFFFFFFFFFFFFFFFFFFFFFFFFFFFFFFFF AND DUP4 PUSH20 0xFFFFFFFFFFFFFFFFFFFFFFFFFFFFFFFFFFFFFFFF AND SUB PUSH2 0x20F9 JUMPI DUP1 PUSH1 0x2 PUSH1 0x0 DUP3 DUP3 SLOAD PUSH2 0x20ED SWAP2 SWAP1 PUSH2 0x2D14 JUMP JUMPDEST SWAP3 POP POP DUP2 SWAP1 SSTORE POP PUSH2 0x21CC JUMP JUMPDEST PUSH1 0x0 DUP1 PUSH1 0x0 DUP6 PUSH20 0xFFFFFFFFFFFFFFFFFFFFFFFFFFFFFFFFFFFFFFFF AND PUSH20 0xFFFFFFFFFFFFFFFFFFFFFFFFFFFFFFFFFFFFFFFF AND DUP2 MSTORE PUSH1 0x20 ADD SWAP1 DUP2 MSTORE PUSH1 0x20 ADD PUSH1 0x0 KECCAK256 SLOAD SWAP1 POP DUP2 DUP2 LT ISZERO PUSH2 0x2185 JUMPI DUP4 DUP2 DUP4 PUSH1 0x40 MLOAD PUSH32 0xE450D38C00000000000000000000000000000000000000000000000000000000 DUP2 MSTORE PUSH1 0x4 ADD PUSH2 0x217C SWAP4 SWAP3 SWAP2 SWAP1 PUSH2 0x2B53 JUMP JUMPDEST PUSH1 0x40 MLOAD DUP1 SWAP2 SUB SWAP1 REVERT JUMPDEST DUP2 DUP2 SUB PUSH1 0x0 DUP1 DUP7 PUSH20 0xFFFFFFFFFFFFFFFFFFFFFFFFFFFFFFFFFFFFFFFF AND PUSH20 0xFFFFFFFFFFFFFFFFFFFFFFFFFFFFFFFFFFFFFFFF AND DUP2 MSTORE PUSH1 0x20 ADD SWAP1 DUP2 MSTORE PUSH1 0x20 ADD PUSH1 0x0 KECCAK256 DUP2 SWAP1 SSTORE POP POP JUMPDEST PUSH1 0x0 PUSH20 0xFFFFFFFFFFFFFFFFFFFFFFFFFFFFFFFFFFFFFFFF AND DUP3 PUSH20 0xFFFFFFFFFFFFFFFFFFFFFFFFFFFFFFFFFFFFFFFF AND SUB PUSH2 0x2215 JUMPI DUP1 PUSH1 0x2 PUSH1 0x0 DUP3 DUP3 SLOAD SUB SWAP3 POP POP DUP2 SWAP1 SSTORE POP PUSH2 0x2262 JUMP JUMPDEST DUP1 PUSH1 0x0 DUP1 DUP5 PUSH20 0xFFFFFFFFFFFFFFFFFFFFFFFFFFFFFFFFFFFFFFFF AND PUSH20 0xFFFFFFFFFFFFFFFFFFFFFFFFFFFFFFFFFFFFFFFF AND DUP2 MSTORE PUSH1 0x20 ADD SWAP1 DUP2 MSTORE PUSH1 0x20 ADD PUSH1 0x0 KECCAK256 PUSH1 0x0 DUP3 DUP3 SLOAD ADD SWAP3 POP POP DUP2 SWAP1 SSTORE POP JUMPDEST DUP2 PUSH20 0xFFFFFFFFFFFFFFFFFFFFFFFFFFFFFFFFFFFFFFFF AND DUP4 PUSH20 0xFFFFFFFFFFFFFFFFFFFFFFFFFFFFFFFFFFFFFFFF AND PUSH32 0xDDF252AD1BE2C89B69C2B068FC378DAA952BA7F163C4A11628F55A4DF523B3EF DUP4 PUSH1 0x40 MLOAD PUSH2 0x22BF SWAP2 SWAP1 PUSH2 0x2606 JUMP JUMPDEST PUSH1 0x40 MLOAD DUP1 SWAP2 SUB SWAP1 LOG3 POP POP POP JUMP JUMPDEST PUSH1 0x0 PUSH2 0x22F7 PUSH32 0xCC5864B50C006EFFFEC16FBCC758B1C2B9725F841F80DF83EA738C15E5B23BBC PUSH2 0x1B3A JUMP JUMPDEST ISZERO PUSH2 0x2324 JUMPI PUSH32 0xCC5864B50C006EFFFEC16FBCC758B1C2B9725F841F80DF83EA738C15E5B23BBC SWAP1 POP PUSH2 0x2381 JUMP JUMPDEST PUSH2 0x234D PUSH32 0xAFDAF88CCACEEDF25860D75CFFACF49572D01E9C3A1769017788D59DD8D968FF PUSH2 0x1B3A JUMP JUMPDEST ISZERO PUSH2 0x237A JUMPI PUSH32 0xAFDAF88CCACEEDF25860D75CFFACF49572D01E9C3A1769017788D59DD8D968FF SWAP1 POP PUSH2 0x2381 JUMP JUMPDEST PUSH1 0x0 DUP1 SHL SWAP1 POP JUMPDEST SWAP1 JUMP JUMPDEST PUSH1 0x0 DUP1 REVERT JUMPDEST PUSH1 0x0 PUSH32 0xFFFFFFFF00000000000000000000000000000000000000000000000000000000 DUP3 AND SWAP1 POP SWAP2 SWAP1 POP JUMP JUMPDEST PUSH2 0x23BE DUP2 PUSH2 0x2389 JUMP JUMPDEST DUP2 EQ PUSH2 0x23C9 JUMPI PUSH1 0x0 DUP1 REVERT JUMPDEST POP JUMP JUMPDEST PUSH1 0x0 DUP2 CALLDATALOAD SWAP1 POP PUSH2 0x23DB DUP2 PUSH2 0x23B5 JUMP JUMPDEST SWAP3 SWAP2 POP POP JUMP JUMPDEST PUSH1 0x0 PUSH1 0x20 DUP3 DUP5 SUB SLT ISZERO PUSH2 0x23F7 JUMPI PUSH2 0x23F6 PUSH2 0x2384 JUMP JUMPDEST JUMPDEST PUSH1 0x0 PUSH2 0x2405 DUP5 DUP3 DUP6 ADD PUSH2 0x23CC JUMP JUMPDEST SWAP2 POP POP SWAP3 SWAP2 POP POP JUMP JUMPDEST PUSH1 0x0 DUP2 ISZERO ISZERO SWAP1 POP SWAP2 SWAP1 POP JUMP JUMPDEST PUSH2 0x2423 DUP2 PUSH2 0x240E JUMP JUMPDEST DUP3 MSTORE POP POP JUMP JUMPDEST PUSH1 0x0 PUSH1 0x20 DUP3 ADD SWAP1 POP PUSH2 0x243E PUSH1 0x0 DUP4 ADD DUP5 PUSH2 0x241A JUMP JUMPDEST SWAP3 SWAP2 POP POP JUMP JUMPDEST PUSH1 0x0 PUSH20 0xFFFFFFFFFFFFFFFFFFFFFFFFFFFFFFFFFFFFFFFF DUP3 AND SWAP1 POP SWAP2 SWAP1 POP JUMP JUMPDEST PUSH1 0x0 PUSH2 0x246F DUP3 PUSH2 0x2444 JUMP JUMPDEST SWAP1 POP SWAP2 SWAP1 POP JUMP JUMPDEST PUSH2 0x247F DUP2 PUSH2 0x2464 JUMP JUMPDEST DUP2 EQ PUSH2 0x248A JUMPI PUSH1 0x0 DUP1 REVERT JUMPDEST POP JUMP JUMPDEST PUSH1 0x0 DUP2 CALLDATALOAD SWAP1 POP PUSH2 0x249C DUP2 PUSH2 0x2476 JUMP JUMPDEST SWAP3 SWAP2 POP POP JUMP JUMPDEST PUSH1 0x0 PUSH1 0x20 DUP3 DUP5 SUB SLT ISZERO PUSH2 0x24B8 JUMPI PUSH2 0x24B7 PUSH2 0x2384 JUMP JUMPDEST JUMPDEST PUSH1 0x0 PUSH2 0x24C6 DUP5 DUP3 DUP6 ADD PUSH2 0x248D JUMP JUMPDEST SWAP2 POP POP SWAP3 SWAP2 POP POP JUMP JUMPDEST PUSH1 0x0 DUP2 MLOAD SWAP1 POP SWAP2 SWAP1 POP JUMP JUMPDEST PUSH1 0x0 DUP3 DUP3 MSTORE PUSH1 0x20 DUP3 ADD SWAP1 POP SWAP3 SWAP2 POP POP JUMP JUMPDEST PUSH1 0x0 JUMPDEST DUP4 DUP2 LT ISZERO PUSH2 0x2509 JUMPI DUP1 DUP3 ADD MLOAD DUP2 DUP5 ADD MSTORE PUSH1 0x20 DUP2 ADD SWAP1 POP PUSH2 0x24EE JUMP JUMPDEST PUSH1 0x0 DUP5 DUP5 ADD MSTORE POP POP POP POP JUMP JUMPDEST PUSH1 0x0 PUSH1 0x1F NOT PUSH1 0x1F DUP4 ADD AND SWAP1 POP SWAP2 SWAP1 POP JUMP JUMPDEST PUSH1 0x0 PUSH2 0x2531 DUP3 PUSH2 0x24CF JUMP JUMPDEST PUSH2 0x253B DUP2 DUP6 PUSH2 0x24DA JUMP JUMPDEST SWAP4 POP PUSH2 0x254B DUP2 DUP6 PUSH1 0x20 DUP7 ADD PUSH2 0x24EB JUMP JUMPDEST PUSH2 0x2554 DUP2 PUSH2 0x2515 JUMP JUMPDEST DUP5 ADD SWAP2 POP POP SWAP3 SWAP2 POP POP JUMP JUMPDEST PUSH1 0x0 PUSH1 0x20 DUP3 ADD SWAP1 POP DUP2 DUP2 SUB PUSH1 0x0 DUP4 ADD MSTORE PUSH2 0x2579 DUP2 DUP5 PUSH2 0x2526 JUMP JUMPDEST SWAP1 POP SWAP3 SWAP2 POP POP JUMP JUMPDEST PUSH1 0x0 DUP2 SWAP1 POP SWAP2 SWAP1 POP JUMP JUMPDEST PUSH2 0x2594 DUP2 PUSH2 0x2581 JUMP JUMPDEST DUP2 EQ PUSH2 0x259F JUMPI PUSH1 0x0 DUP1 REVERT JUMPDEST POP JUMP JUMPDEST PUSH1 0x0 DUP2 CALLDATALOAD SWAP1 POP PUSH2 0x25B1 DUP2 PUSH2 0x258B JUMP JUMPDEST SWAP3 SWAP2 POP POP JUMP JUMPDEST PUSH1 0x0 DUP1 PUSH1 0x40 DUP4 DUP6 SUB SLT ISZERO PUSH2 0x25CE JUMPI PUSH2 0x25CD PUSH2 0x2384 JUMP JUMPDEST JUMPDEST PUSH1 0x0 PUSH2 0x25DC DUP6 DUP3 DUP7 ADD PUSH2 0x248D JUMP JUMPDEST SWAP3 POP POP PUSH1 0x20 PUSH2 0x25ED DUP6 DUP3 DUP7 ADD PUSH2 0x25A2 JUMP JUMPDEST SWAP2 POP POP SWAP3 POP SWAP3 SWAP1 POP JUMP JUMPDEST PUSH2 0x2600 DUP2 PUSH2 0x2581 JUMP JUMPDEST DUP3 MSTORE POP POP JUMP JUMPDEST PUSH1 0x0 PUSH1 0x20 DUP3 ADD SWAP1 POP PUSH2 0x261B PUSH1 0x0 DUP4 ADD DUP5 PUSH2 0x25F7 JUMP JUMPDEST SWAP3 SWAP2 POP POP JUMP JUMPDEST PUSH1 0x0 DUP1 PUSH1 0x0 PUSH1 0x60 DUP5 DUP7 SUB SLT ISZERO PUSH2 0x263A JUMPI PUSH2 0x2639 PUSH2 0x2384 JUMP JUMPDEST JUMPDEST PUSH1 0x0 PUSH2 0x2648 DUP7 DUP3 DUP8 ADD PUSH2 0x248D JUMP JUMPDEST SWAP4 POP POP PUSH1 0x20 PUSH2 0x2659 DUP7 DUP3 DUP8 ADD PUSH2 0x248D JUMP JUMPDEST SWAP3 POP POP PUSH1 0x40 PUSH2 0x266A DUP7 DUP3 DUP8 ADD PUSH2 0x25A2 JUMP JUMPDEST SWAP2 POP POP SWAP3 POP SWAP3 POP SWAP3 JUMP JUMPDEST PUSH1 0x0 DUP2 SWAP1 POP SWAP2 SWAP1 POP JUMP JUMPDEST PUSH2 0x2687 DUP2 PUSH2 0x2674 JUMP JUMPDEST DUP2 EQ PUSH2 0x2692 JUMPI PUSH1 0x0 DUP1 REVERT JUMPDEST POP JUMP JUMPDEST PUSH1 0x0 DUP2 CALLDATALOAD SWAP1 POP PUSH2 0x26A4 DUP2 PUSH2 0x267E JUMP JUMPDEST SWAP3 SWAP2 POP POP JUMP JUMPDEST PUSH1 0x0 PUSH1 0x20 DUP3 DUP5 SUB SLT ISZERO PUSH2 0x26C0 JUMPI PUSH2 0x26BF PUSH2 0x2384 JUMP JUMPDEST JUMPDEST PUSH1 0x0 PUSH2 0x26CE DUP5 DUP3 DUP6 ADD PUSH2 0x2695 JUMP JUMPDEST SWAP2 POP POP SWAP3 SWAP2 POP POP JUMP JUMPDEST PUSH2 0x26E0 DUP2 PUSH2 0x2674 JUMP JUMPDEST DUP3 MSTORE POP POP JUMP JUMPDEST PUSH1 0x0 PUSH1 0x20 DUP3 ADD SWAP1 POP PUSH2 0x26FB PUSH1 0x0 DUP4 ADD DUP5 PUSH2 0x26D7 JUMP JUMPDEST SWAP3 SWAP2 POP POP JUMP JUMPDEST PUSH1 0x0 DUP1 PUSH1 0x40 DUP4 DUP6 SUB SLT ISZERO PUSH2 0x2718 JUMPI PUSH2 0x2717 PUSH2 0x2384 JUMP JUMPDEST JUMPDEST PUSH1 0x0 PUSH2 0x2726 DUP6 DUP3 DUP7 ADD PUSH2 0x2695 JUMP JUMPDEST SWAP3 POP POP PUSH1 0x20 PUSH2 0x2737 DUP6 DUP3 DUP7 ADD PUSH2 0x248D JUMP JUMPDEST SWAP2 POP POP SWAP3 POP SWAP3 SWAP1 POP JUMP JUMPDEST PUSH1 0x0 PUSH1 0xFF DUP3 AND SWAP1 POP SWAP2 SWAP1 POP JUMP JUMPDEST PUSH2 0x2757 DUP2 PUSH2 0x2741 JUMP JUMPDEST DUP3 MSTORE POP POP JUMP JUMPDEST PUSH1 0x0 PUSH1 0x20 DUP3 ADD SWAP1 POP PUSH2 0x2772 PUSH1 0x0 DUP4 ADD DUP5 PUSH2 0x274E JUMP JUMPDEST SWAP3 SWAP2 POP POP JUMP JUMPDEST PUSH1 0x0 PUSH4 0xFFFFFFFF DUP3 AND SWAP1 POP SWAP2 SWAP1 POP JUMP JUMPDEST PUSH2 0x2791 DUP2 PUSH2 0x2778 JUMP JUMPDEST DUP3 MSTORE POP POP JUMP JUMPDEST PUSH1 0x0 PUSH1 0x20 DUP3 ADD SWAP1 POP PUSH2 0x27AC PUSH1 0x0 DUP4 ADD DUP5 PUSH2 0x2788 JUMP JUMPDEST SWAP3 SWAP2 POP POP JUMP JUMPDEST PUSH2 0x27BB DUP2 PUSH2 0x2464 JUMP JUMPDEST DUP3 MSTORE POP POP JUMP JUMPDEST PUSH1 0x0 PUSH1 0x20 DUP3 ADD SWAP1 POP PUSH2 0x27D6 PUSH1 0x0 DUP4 ADD DUP5 PUSH2 0x27B2 JUMP JUMPDEST SWAP3 SWAP2 POP POP JUMP JUMPDEST PUSH1 0x0 PUSH1 0x20 DUP3 DUP5 SUB SLT ISZERO PUSH2 0x27F2 JUMPI PUSH2 0x27F1 PUSH2 0x2384 JUMP JUMPDEST JUMPDEST PUSH1 0x0 PUSH2 0x2800 DUP5 DUP3 DUP6 ADD PUSH2 0x25A2 JUMP JUMPDEST SWAP2 POP POP SWAP3 SWAP2 POP POP JUMP JUMPDEST PUSH1 0x0 DUP1 PUSH1 0x40 DUP4 DUP6 SUB SLT ISZERO PUSH2 0x2820 JUMPI PUSH2 0x281F PUSH2 0x2384 JUMP JUMPDEST JUMPDEST PUSH1 0x0 PUSH2 0x282E DUP6 DUP3 DUP7 ADD PUSH2 0x248D JUMP JUMPDEST SWAP3 POP POP PUSH1 0x20 PUSH2 0x283F DUP6 DUP3 DUP7 ADD PUSH2 0x248D JUMP JUMPDEST SWAP2 POP POP SWAP3 POP SWAP3 SWAP1 POP JUMP JUMPDEST PUSH32 0x4E487B7100000000000000000000000000000000000000000000000000000000 PUSH1 0x0 MSTORE PUSH1 0x11 PUSH1 0x4 MSTORE PUSH1 0x24 PUSH1 0x0 REVERT JUMPDEST PUSH1 0x0 DUP2 PUSH1 0x1 SHR SWAP1 POP SWAP2 SWAP1 POP JUMP JUMPDEST PUSH1 0x0 DUP1 DUP3 SWAP2 POP DUP4 SWAP1 POP JUMPDEST PUSH1 0x1 DUP6 GT ISZERO PUSH2 0x28CF JUMPI DUP1 DUP7 DIV DUP2 GT ISZERO PUSH2 0x28AB JUMPI PUSH2 0x28AA PUSH2 0x2849 JUMP JUMPDEST JUMPDEST PUSH1 0x1 DUP6 AND ISZERO PUSH2 0x28BA JUMPI DUP1 DUP3 MUL SWAP2 POP JUMPDEST DUP1 DUP2 MUL SWAP1 POP PUSH2 0x28C8 DUP6 PUSH2 0x2878 JUMP JUMPDEST SWAP5 POP PUSH2 0x288F JUMP JUMPDEST SWAP5 POP SWAP5 SWAP3 POP POP POP JUMP JUMPDEST PUSH1 0x0 DUP3 PUSH2 0x28E8 JUMPI PUSH1 0x1 SWAP1 POP PUSH2 0x29A4 JUMP JUMPDEST DUP2 PUSH2 0x28F6 JUMPI PUSH1 0x0 SWAP1 POP PUSH2 0x29A4 JUMP JUMPDEST DUP2 PUSH1 0x1 DUP2 EQ PUSH2 0x290C JUMPI PUSH1 0x2 DUP2 EQ PUSH2 0x2916 JUMPI PUSH2 0x2945 JUMP JUMPDEST PUSH1 0x1 SWAP2 POP POP PUSH2 0x29A4 JUMP JUMPDEST PUSH1 0xFF DUP5 GT ISZERO PUSH2 0x2928 JUMPI PUSH2 0x2927 PUSH2 0x2849 JUMP JUMPDEST JUMPDEST DUP4 PUSH1 0x2 EXP SWAP2 POP DUP5 DUP3 GT ISZERO PUSH2 0x293F JUMPI PUSH2 0x293E PUSH2 0x2849 JUMP JUMPDEST JUMPDEST POP PUSH2 0x29A4 JUMP JUMPDEST POP PUSH1 0x20 DUP4 LT PUSH2 0x133 DUP4 LT AND PUSH1 0x4E DUP5 LT PUSH1 0xB DUP5 LT AND OR ISZERO PUSH2 0x297A JUMPI DUP3 DUP3 EXP SWAP1 POP DUP4 DUP2 GT ISZERO PUSH2 0x2975 JUMPI PUSH2 0x2974 PUSH2 0x2849 JUMP JUMPDEST JUMPDEST PUSH2 0x29A4 JUMP JUMPDEST PUSH2 0x2987 DUP5 DUP5 DUP5 PUSH1 0x1 PUSH2 0x2885 JUMP JUMPDEST SWAP3 POP SWAP1 POP DUP2 DUP5 DIV DUP2 GT ISZERO PUSH2 0x299E JUMPI PUSH2 0x299D PUSH2 0x2849 JUMP JUMPDEST JUMPDEST DUP2 DUP2 MUL SWAP1 POP JUMPDEST SWAP4 SWAP3 POP POP POP JUMP JUMPDEST PUSH1 0x0 PUSH2 0x29B6 DUP3 PUSH2 0x2581 JUMP JUMPDEST SWAP2 POP PUSH2 0x29C1 DUP4 PUSH2 0x2741 JUMP JUMPDEST SWAP3 POP PUSH2 0x29EE PUSH32 0xFFFFFFFFFFFFFFFFFFFFFFFFFFFFFFFFFFFFFFFFFFFFFFFFFFFFFFFFFFFFFFFF DUP5 DUP5 PUSH2 0x28D8 JUMP JUMPDEST SWAP1 POP SWAP3 SWAP2 POP POP JUMP JUMPDEST PUSH1 0x0 PUSH2 0x2A01 DUP3 PUSH2 0x2581 JUMP JUMPDEST SWAP2 POP PUSH2 0x2A0C DUP4 PUSH2 0x2581 JUMP JUMPDEST SWAP3 POP DUP3 DUP3 MUL PUSH2 0x2A1A DUP2 PUSH2 0x2581 JUMP JUMPDEST SWAP2 POP DUP3 DUP3 DIV DUP5 EQ DUP4 ISZERO OR PUSH2 0x2A31 JUMPI PUSH2 0x2A30 PUSH2 0x2849 JUMP JUMPDEST JUMPDEST POP SWAP3 SWAP2 POP POP JUMP JUMPDEST PUSH32 0x4E487B7100000000000000000000000000000000000000000000000000000000 PUSH1 0x0 MSTORE PUSH1 0x22 PUSH1 0x4 MSTORE PUSH1 0x24 PUSH1 0x0 REVERT JUMPDEST PUSH1 0x0 PUSH1 0x2 DUP3 DIV SWAP1 POP PUSH1 0x1 DUP3 AND DUP1 PUSH2 0x2A7F JUMPI PUSH1 0x7F DUP3 AND SWAP2 POP JUMPDEST PUSH1 0x20 DUP3 LT DUP2 SUB PUSH2 0x2A92 JUMPI PUSH2 0x2A91 PUSH2 0x2A38 JUMP JUMPDEST JUMPDEST POP SWAP2 SWAP1 POP JUMP JUMPDEST PUSH32 0x496E76616C696420616D6F756E743A204D757374206265206772656174657220 PUSH1 0x0 DUP3 ADD MSTORE PUSH32 0x7468616E20300000000000000000000000000000000000000000000000000000 PUSH1 0x20 DUP3 ADD MSTORE POP JUMP JUMPDEST PUSH1 0x0 PUSH2 0x2AF4 PUSH1 0x26 DUP4 PUSH2 0x24DA JUMP JUMPDEST SWAP2 POP PUSH2 0x2AFF DUP3 PUSH2 0x2A98 JUMP JUMPDEST PUSH1 0x40 DUP3 ADD SWAP1 POP SWAP2 SWAP1 POP JUMP JUMPDEST PUSH1 0x0 PUSH1 0x20 DUP3 ADD SWAP1 POP DUP2 DUP2 SUB PUSH1 0x0 DUP4 ADD MSTORE PUSH2 0x2B23 DUP2 PUSH2 0x2AE7 JUMP JUMPDEST SWAP1 POP SWAP2 SWAP1 POP JUMP JUMPDEST PUSH1 0x0 PUSH1 0x40 DUP3 ADD SWAP1 POP PUSH2 0x2B3F PUSH1 0x0 DUP4 ADD DUP6 PUSH2 0x27B2 JUMP JUMPDEST PUSH2 0x2B4C PUSH1 0x20 DUP4 ADD DUP5 PUSH2 0x27B2 JUMP JUMPDEST SWAP4 SWAP3 POP POP POP JUMP JUMPDEST PUSH1 0x0 PUSH1 0x60 DUP3 ADD SWAP1 POP PUSH2 0x2B68 PUSH1 0x0 DUP4 ADD DUP7 PUSH2 0x27B2 JUMP JUMPDEST PUSH2 0x2B75 PUSH1 0x20 DUP4 ADD DUP6 PUSH2 0x25F7 JUMP JUMPDEST PUSH2 0x2B82 PUSH1 0x40 DUP4 ADD DUP5 PUSH2 0x25F7 JUMP JUMPDEST SWAP5 SWAP4 POP POP POP POP JUMP JUMPDEST PUSH32 0x4E487B7100000000000000000000000000000000000000000000000000000000 PUSH1 0x0 MSTORE PUSH1 0x21 PUSH1 0x4 MSTORE PUSH1 0x24 PUSH1 0x0 REVERT JUMPDEST PUSH1 0x3 DUP2 LT PUSH2 0x2BCA JUMPI PUSH2 0x2BC9 PUSH2 0x2B8A JUMP JUMPDEST JUMPDEST POP JUMP JUMPDEST PUSH1 0x0 DUP2 SWAP1 POP PUSH2 0x2BDB DUP3 PUSH2 0x2BB9 JUMP JUMPDEST SWAP2 SWAP1 POP JUMP JUMPDEST PUSH1 0x0 PUSH2 0x2BEB DUP3 PUSH2 0x2BCD JUMP JUMPDEST SWAP1 POP SWAP2 SWAP1 POP JUMP JUMPDEST PUSH2 0x2BFB DUP2 PUSH2 0x2BE0 JUMP JUMPDEST DUP3 MSTORE POP POP JUMP JUMPDEST PUSH1 0x0 PUSH1 0x80 DUP3 ADD SWAP1 POP PUSH2 0x2C16 PUSH1 0x0 DUP4 ADD DUP8 PUSH2 0x27B2 JUMP JUMPDEST PUSH2 0x2C23 PUSH1 0x20 DUP4 ADD DUP7 PUSH2 0x2BF2 JUMP JUMPDEST PUSH2 0x2C30 PUSH1 0x40 DUP4 ADD DUP6 PUSH2 0x26D7 JUMP JUMPDEST PUSH2 0x2C3D PUSH1 0x60 DUP4 ADD DUP5 PUSH2 0x25F7 JUMP JUMPDEST SWAP6 SWAP5 POP POP POP POP POP JUMP JUMPDEST PUSH1 0x0 PUSH1 0x40 DUP3 ADD SWAP1 POP PUSH2 0x2C5B PUSH1 0x0 DUP4 ADD DUP6 PUSH2 0x25F7 JUMP JUMPDEST PUSH2 0x2C68 PUSH1 0x20 DUP4 ADD DUP5 PUSH2 0x25F7 JUMP JUMPDEST SWAP4 SWAP3 POP POP POP JUMP JUMPDEST PUSH1 0x0 PUSH1 0x40 DUP3 ADD SWAP1 POP PUSH2 0x2C84 PUSH1 0x0 DUP4 ADD DUP6 PUSH2 0x27B2 JUMP JUMPDEST PUSH2 0x2C91 PUSH1 0x20 DUP4 ADD DUP5 PUSH2 0x26D7 JUMP JUMPDEST SWAP4 SWAP3 POP POP POP JUMP JUMPDEST PUSH1 0x0 PUSH1 0x40 DUP3 ADD SWAP1 POP PUSH2 0x2CAD PUSH1 0x0 DUP4 ADD DUP6 PUSH2 0x27B2 JUMP JUMPDEST PUSH2 0x2CBA PUSH1 0x20 DUP4 ADD DUP5 PUSH2 0x25F7 JUMP JUMPDEST SWAP4 SWAP3 POP POP POP JUMP JUMPDEST PUSH1 0x0 PUSH1 0xA0 DUP3 ADD SWAP1 POP PUSH2 0x2CD6 PUSH1 0x0 DUP4 ADD DUP9 PUSH2 0x27B2 JUMP JUMPDEST PUSH2 0x2CE3 PUSH1 0x20 DUP4 ADD DUP8 PUSH2 0x26D7 JUMP JUMPDEST PUSH2 0x2CF0 PUSH1 0x40 DUP4 ADD DUP7 PUSH2 0x25F7 JUMP JUMPDEST PUSH2 0x2CFD PUSH1 0x60 DUP4 ADD DUP6 PUSH2 0x2BF2 JUMP JUMPDEST PUSH2 0x2D0A PUSH1 0x80 DUP4 ADD DUP5 PUSH2 0x25F7 JUMP JUMPDEST SWAP7 SWAP6 POP POP POP POP POP POP JUMP JUMPDEST PUSH1 0x0 PUSH2 0x2D1F DUP3 PUSH2 0x2581 JUMP JUMPDEST SWAP2 POP PUSH2 0x2D2A DUP4 PUSH2 0x2581 JUMP JUMPDEST SWAP3 POP DUP3 DUP3 ADD SWAP1 POP DUP1 DUP3 GT ISZERO PUSH2 0x2D42 JUMPI PUSH2 0x2D41 PUSH2 0x2849 JUMP JUMPDEST JUMPDEST SWAP3 SWAP2 POP POP JUMP INVALID LOG2 PUSH5 0x6970667358 0x22 SLT KECCAK256 SWAP8 0xD4 SMOD 0xC5 LOG0 DUP5 ISZERO SWAP4 DUP12 PUSH26 0x7F9659524CB2B7497F518C325945AC2674D1C0A89B0264736F6C PUSH4 0x4300081B STOP CALLER "
        },
        "methodIdentifiers": {
          "DEFAULT_ADMIN_ROLE()": "a217fddf",
          "INITIAL_TREASURE_SUPPLY()": "80bd5996",
          "MAX_TOKEN_SUPPLY()": "e489d510",
          "TREASURY_SECRETARY()": "e160cd08",
          "TREASURY_SECRETARY_MANAGER()": "32544a62",
          "TREASURY_TREASURER()": "2f1f6879",
          "allowance(address,address)": "dd62ed3e",
          "appointSecretary(address)": "a5465f40",
          "appointTreasurer(address)": "39ae5108",
          "approve(address,uint256)": "095ea7b3",
          "balanceOf(address)": "70a08231",
          "burnFromTreasure(uint256)": "99d23277",
          "cap()": "355274ea",
          "decimals()": "313ce567",
          "dismissSecretary(address)": "e1ccadcf",
          "dismissTreasurer(address)": "469a8dbd",
          "establishTreasury(address)": "0254e8b0",
          "getRoleAdmin(bytes32)": "248a9ca3",
          "grantRole(bytes32,address)": "2f2ff15d",
          "hasRole(bytes32,address)": "91d14854",
          "issueTokensToTreasure(uint256)": "bd0ae394",
          "maxSupply()": "d5abeb01",
          "name()": "06fdde03",
          "owner()": "8da5cb5b",
          "renounceOwnership()": "715018a6",
          "renounceRole(bytes32,address)": "36568abe",
          "revokeRole(bytes32,address)": "d547741f",
          "supportsInterface(bytes4)": "01ffc9a7",
          "symbol()": "95d89b41",
          "totalSupply()": "18160ddd",
          "transfer(address,uint256)": "a9059cbb",
          "transferFrom(address,address,uint256)": "23b872dd",
          "transferFromTreasure(address,uint256)": "37d5534e",
          "transferOwnership(address)": "f2fde38b",
          "treasure()": "e520fc7e"
        }
      }
    }
  }
}